{
  "contractName": "Lottery",
  "abi": [
    {
      "inputs": [
        {
          "internalType": "contract IERC20",
          "name": "_fanz",
          "type": "address"
        },
        {
          "internalType": "contract LotteryNFT",
          "name": "_lottery",
          "type": "address"
        },
        {
          "internalType": "uint256",
          "name": "_minPrice",
          "type": "uint256"
        },
        {
          "internalType": "uint8",
          "name": "_maxNumber",
          "type": "uint8"
        },
        {
          "internalType": "address",
          "name": "_owner",
          "type": "address"
        },
        {
          "internalType": "address",
          "name": "_adminAddress",
          "type": "address"
        }
      ],
      "stateMutability": "nonpayable",
      "type": "constructor"
    },
    {
      "anonymous": false,
      "inputs": [
        {
          "indexed": true,
          "internalType": "address",
          "name": "user",
          "type": "address"
        },
        {
          "indexed": false,
          "internalType": "uint256",
          "name": "tokenId",
          "type": "uint256"
        }
      ],
      "name": "Buy",
      "type": "event"
    },
    {
      "anonymous": false,
      "inputs": [
        {
          "indexed": true,
          "internalType": "address",
          "name": "user",
          "type": "address"
        },
        {
          "indexed": false,
          "internalType": "uint256",
          "name": "tokenid",
          "type": "uint256"
        },
        {
          "indexed": false,
          "internalType": "uint256",
          "name": "amount",
          "type": "uint256"
        }
      ],
      "name": "Claim",
      "type": "event"
    },
    {
      "anonymous": false,
      "inputs": [
        {
          "indexed": true,
          "internalType": "address",
          "name": "user",
          "type": "address"
        },
        {
          "indexed": false,
          "internalType": "uint256",
          "name": "amount",
          "type": "uint256"
        }
      ],
      "name": "DevWithdraw",
      "type": "event"
    },
    {
      "anonymous": false,
      "inputs": [
        {
          "indexed": true,
          "internalType": "uint256",
          "name": "issueIndex",
          "type": "uint256"
        },
        {
          "indexed": false,
          "internalType": "uint8[4]",
          "name": "winningNumbers",
          "type": "uint8[4]"
        }
      ],
      "name": "Drawing",
      "type": "event"
    },
    {
      "anonymous": false,
      "inputs": [
        {
          "indexed": true,
          "internalType": "address",
          "name": "user",
          "type": "address"
        },
        {
          "indexed": false,
          "internalType": "uint256",
          "name": "amount",
          "type": "uint256"
        }
      ],
      "name": "MultiBuy",
      "type": "event"
    },
    {
      "anonymous": false,
      "inputs": [
        {
          "indexed": true,
          "internalType": "address",
          "name": "user",
          "type": "address"
        },
        {
          "indexed": false,
          "internalType": "uint256",
          "name": "amount",
          "type": "uint256"
        }
      ],
      "name": "MultiClaim",
      "type": "event"
    },
    {
      "anonymous": false,
      "inputs": [
        {
          "indexed": true,
          "internalType": "address",
          "name": "previousOwner",
          "type": "address"
        },
        {
          "indexed": true,
          "internalType": "address",
          "name": "newOwner",
          "type": "address"
        }
      ],
      "name": "OwnershipTransferred",
      "type": "event"
    },
    {
      "anonymous": false,
      "inputs": [
        {
          "indexed": true,
          "internalType": "uint256",
          "name": "issueIndex",
          "type": "uint256"
        }
      ],
      "name": "Reset",
      "type": "event"
    },
    {
      "inputs": [],
      "name": "adminAddress",
      "outputs": [
        {
          "internalType": "address",
          "name": "",
          "type": "address"
        }
      ],
      "stateMutability": "view",
      "type": "function",
      "constant": true
    },
    {
      "inputs": [
        {
          "internalType": "uint256",
          "name": "",
          "type": "uint256"
        }
      ],
      "name": "allocation",
      "outputs": [
        {
          "internalType": "uint8",
          "name": "",
          "type": "uint8"
        }
      ],
      "stateMutability": "view",
      "type": "function",
      "constant": true
    },
    {
      "inputs": [],
      "name": "drawingPhase",
      "outputs": [
        {
          "internalType": "bool",
          "name": "",
          "type": "bool"
        }
      ],
      "stateMutability": "view",
      "type": "function",
      "constant": true
    },
    {
      "inputs": [],
      "name": "fanz",
      "outputs": [
        {
          "internalType": "contract IERC20",
          "name": "",
          "type": "address"
        }
      ],
      "stateMutability": "view",
      "type": "function",
      "constant": true
    },
    {
      "inputs": [
        {
          "internalType": "uint256",
          "name": "",
          "type": "uint256"
        },
        {
          "internalType": "uint256",
          "name": "",
          "type": "uint256"
        }
      ],
      "name": "historyAmount",
      "outputs": [
        {
          "internalType": "uint256",
          "name": "",
          "type": "uint256"
        }
      ],
      "stateMutability": "view",
      "type": "function",
      "constant": true
    },
    {
      "inputs": [
        {
          "internalType": "uint256",
          "name": "",
          "type": "uint256"
        },
        {
          "internalType": "uint256",
          "name": "",
          "type": "uint256"
        }
      ],
      "name": "historyNumbers",
      "outputs": [
        {
          "internalType": "uint8",
          "name": "",
          "type": "uint8"
        }
      ],
      "stateMutability": "view",
      "type": "function",
      "constant": true
    },
    {
      "inputs": [],
      "name": "issueIndex",
      "outputs": [
        {
          "internalType": "uint256",
          "name": "",
          "type": "uint256"
        }
      ],
      "stateMutability": "view",
      "type": "function",
      "constant": true
    },
    {
      "inputs": [],
      "name": "lastTimestamp",
      "outputs": [
        {
          "internalType": "uint256",
          "name": "",
          "type": "uint256"
        }
      ],
      "stateMutability": "view",
      "type": "function",
      "constant": true
    },
    {
      "inputs": [
        {
          "internalType": "uint256",
          "name": "",
          "type": "uint256"
        },
        {
          "internalType": "uint256",
          "name": "",
          "type": "uint256"
        }
      ],
      "name": "lotteryInfo",
      "outputs": [
        {
          "internalType": "uint256",
          "name": "",
          "type": "uint256"
        }
      ],
      "stateMutability": "view",
      "type": "function",
      "constant": true
    },
    {
      "inputs": [],
      "name": "lotteryNFT",
      "outputs": [
        {
          "internalType": "contract LotteryNFT",
          "name": "",
          "type": "address"
        }
      ],
      "stateMutability": "view",
      "type": "function",
      "constant": true
    },
    {
      "inputs": [],
      "name": "maxNumber",
      "outputs": [
        {
          "internalType": "uint8",
          "name": "",
          "type": "uint8"
        }
      ],
      "stateMutability": "view",
      "type": "function",
      "constant": true
    },
    {
      "inputs": [],
      "name": "minPrice",
      "outputs": [
        {
          "internalType": "uint256",
          "name": "",
          "type": "uint256"
        }
      ],
      "stateMutability": "view",
      "type": "function",
      "constant": true
    },
    {
      "inputs": [],
      "name": "owner",
      "outputs": [
        {
          "internalType": "address",
          "name": "",
          "type": "address"
        }
      ],
      "stateMutability": "view",
      "type": "function",
      "constant": true
    },
    {
      "inputs": [],
      "name": "renounceOwnership",
      "outputs": [],
      "stateMutability": "nonpayable",
      "type": "function"
    },
    {
      "inputs": [],
      "name": "totalAddresses",
      "outputs": [
        {
          "internalType": "uint256",
          "name": "",
          "type": "uint256"
        }
      ],
      "stateMutability": "view",
      "type": "function",
      "constant": true
    },
    {
      "inputs": [],
      "name": "totalAmount",
      "outputs": [
        {
          "internalType": "uint256",
          "name": "",
          "type": "uint256"
        }
      ],
      "stateMutability": "view",
      "type": "function",
      "constant": true
    },
    {
      "inputs": [
        {
          "internalType": "address",
          "name": "newOwner",
          "type": "address"
        }
      ],
      "name": "transferOwnership",
      "outputs": [],
      "stateMutability": "nonpayable",
      "type": "function"
    },
    {
      "inputs": [
        {
          "internalType": "uint256",
          "name": "",
          "type": "uint256"
        },
        {
          "internalType": "uint64",
          "name": "",
          "type": "uint64"
        }
      ],
      "name": "userBuyAmountSum",
      "outputs": [
        {
          "internalType": "uint256",
          "name": "",
          "type": "uint256"
        }
      ],
      "stateMutability": "view",
      "type": "function",
      "constant": true
    },
    {
      "inputs": [
        {
          "internalType": "address",
          "name": "",
          "type": "address"
        },
        {
          "internalType": "uint256",
          "name": "",
          "type": "uint256"
        }
      ],
      "name": "userInfo",
      "outputs": [
        {
          "internalType": "uint256",
          "name": "",
          "type": "uint256"
        }
      ],
      "stateMutability": "view",
      "type": "function",
      "constant": true
    },
    {
      "inputs": [
        {
          "internalType": "uint256",
          "name": "",
          "type": "uint256"
        }
      ],
      "name": "winningNumbers",
      "outputs": [
        {
          "internalType": "uint8",
          "name": "",
          "type": "uint8"
        }
      ],
      "stateMutability": "view",
      "type": "function",
      "constant": true
    },
    {
      "inputs": [],
      "name": "drawed",
      "outputs": [
        {
          "internalType": "bool",
          "name": "",
          "type": "bool"
        }
      ],
      "stateMutability": "view",
      "type": "function",
      "constant": true
    },
    {
      "inputs": [],
      "name": "reset",
      "outputs": [],
      "stateMutability": "nonpayable",
      "type": "function"
    },
    {
      "inputs": [],
      "name": "enterDrawingPhase",
      "outputs": [],
      "stateMutability": "nonpayable",
      "type": "function"
    },
    {
      "inputs": [
        {
          "internalType": "uint256",
          "name": "_externalRandomNumber",
          "type": "uint256"
        }
      ],
      "name": "drawing",
      "outputs": [],
      "stateMutability": "nonpayable",
      "type": "function"
    },
    {
      "inputs": [
        {
          "internalType": "uint256",
          "name": "_price",
          "type": "uint256"
        },
        {
          "internalType": "uint8[4]",
          "name": "_numbers",
          "type": "uint8[4]"
        }
      ],
      "name": "buy",
      "outputs": [],
      "stateMutability": "nonpayable",
      "type": "function"
    },
    {
      "inputs": [
        {
          "internalType": "uint256",
          "name": "_price",
          "type": "uint256"
        },
        {
          "internalType": "uint8[4][]",
          "name": "_numbers",
          "type": "uint8[4][]"
        }
      ],
      "name": "multiBuy",
      "outputs": [],
      "stateMutability": "nonpayable",
      "type": "function"
    },
    {
      "inputs": [
        {
          "internalType": "uint256",
          "name": "_tokenId",
          "type": "uint256"
        }
      ],
      "name": "claimReward",
      "outputs": [],
      "stateMutability": "nonpayable",
      "type": "function"
    },
    {
      "inputs": [
        {
          "internalType": "uint256[]",
          "name": "_tickets",
          "type": "uint256[]"
        }
      ],
      "name": "multiClaim",
      "outputs": [],
      "stateMutability": "nonpayable",
      "type": "function"
    },
    {
      "inputs": [
        {
          "internalType": "uint8[4]",
          "name": "number",
          "type": "uint8[4]"
        }
      ],
      "name": "generateNumberIndexKey",
      "outputs": [
        {
          "internalType": "uint64[11]",
          "name": "",
          "type": "uint64[11]"
        }
      ],
      "stateMutability": "pure",
      "type": "function",
      "constant": true
    },
    {
      "inputs": [
        {
          "internalType": "uint256",
          "name": "_issueIndex",
          "type": "uint256"
        },
        {
          "internalType": "uint256",
          "name": "_matchingNumber",
          "type": "uint256"
        }
      ],
      "name": "getMatchingRewardAmount",
      "outputs": [
        {
          "internalType": "uint256",
          "name": "",
          "type": "uint256"
        }
      ],
      "stateMutability": "view",
      "type": "function",
      "constant": true
    },
    {
      "inputs": [
        {
          "internalType": "uint256",
          "name": "_issueIndex",
          "type": "uint256"
        }
      ],
      "name": "getTotalRewards",
      "outputs": [
        {
          "internalType": "uint256",
          "name": "",
          "type": "uint256"
        }
      ],
      "stateMutability": "view",
      "type": "function",
      "constant": true
    },
    {
      "inputs": [
        {
          "internalType": "uint256",
          "name": "_tokenId",
          "type": "uint256"
        }
      ],
      "name": "getRewardView",
      "outputs": [
        {
          "internalType": "uint256",
          "name": "",
          "type": "uint256"
        }
      ],
      "stateMutability": "view",
      "type": "function",
      "constant": true
    },
    {
      "inputs": [
        {
          "internalType": "address",
          "name": "_adminAddress",
          "type": "address"
        }
      ],
      "name": "setAdmin",
      "outputs": [],
      "stateMutability": "nonpayable",
      "type": "function"
    },
    {
      "inputs": [
        {
          "internalType": "uint256",
          "name": "_amount",
          "type": "uint256"
        }
      ],
      "name": "adminWithdraw",
      "outputs": [],
      "stateMutability": "nonpayable",
      "type": "function"
    },
    {
      "inputs": [
        {
          "internalType": "uint256",
          "name": "_price",
          "type": "uint256"
        }
      ],
      "name": "setMinPrice",
      "outputs": [],
      "stateMutability": "nonpayable",
      "type": "function"
    },
    {
      "inputs": [
        {
          "internalType": "uint8",
          "name": "_maxNumber",
          "type": "uint8"
        }
      ],
      "name": "setMaxNumber",
      "outputs": [],
      "stateMutability": "nonpayable",
      "type": "function"
    },
    {
      "inputs": [
        {
          "internalType": "uint8",
          "name": "_allcation1",
          "type": "uint8"
        },
        {
          "internalType": "uint8",
          "name": "_allcation2",
          "type": "uint8"
        },
        {
          "internalType": "uint8",
          "name": "_allcation3",
          "type": "uint8"
        }
      ],
      "name": "setAllocation",
      "outputs": [],
      "stateMutability": "nonpayable",
      "type": "function"
    }
  ],
  "bytecode": "0x6000600b819055600c819055600d819055610100604052608081815260a082905260c082905260e0919091526200003b90601190600462000155565b503480156200004957600080fd5b50604051620032e6380380620032e68339810160408190526200006c916200020a565b600280546001600160a01b03199081166001600160a01b038981169190911790925560038054821688841617815560058790556004805460ff60a01b1916600160a01b60ff8916021790921692841692909217905542600e5560408051606081018252603c815260146020820152600a91810191909152620000f2916001919062000155565b50620000fe826200010a565b505050505050620002ae565b600080546001600160a01b0319166001600160a01b03831690811782556040519091907f8be0079c531659141344cd1fd0a4f28419497f9722a3daafe3b4186f6b6457e0908290a350565b600183019183908215620001dd5791602002820160005b83821115620001ac57835183826101000a81548160ff021916908360ff16021790555092602001926001016020816000010492830192600103026200016c565b8015620001db5782816101000a81549060ff0219169055600101602081600001049283019260010302620001ac565b505b50620001eb929150620001ef565b5090565b5b80821115620001eb57805460ff19168155600101620001f0565b60008060008060008060c0878903121562000223578182fd5b8651620002308162000295565b6020880151909650620002438162000295565b60408801516060890151919650945060ff8116811462000261578283fd5b6080880151909350620002748162000295565b60a0880151909250620002878162000295565b809150509295509295509295565b6001600160a01b0381168114620002ab57600080fd5b50565b61302880620002be6000396000f3fe608060405234801561001057600080fd5b50600436106102275760003560e01c8063704b6c0211610130578063cfad5277116100b8578063e45be8eb1161007c578063e45be8eb1461045f578063e532c65714610467578063e8adfbc71461046f578063f2fde38b14610477578063fc6f94681461048a57610227565b8063cfad527714610421578063d1f7dbcf14610429578063d411b0fa1461043c578063d826f88f1461044f578063e13454161461045757610227565b806385dcdf1b116100ff57806385dcdf1b146103b35780638da5cb5b146103d3578063a42206c9146103e8578063ae169a50146103fb578063c39f49c01461040e57610227565b8063704b6c0214610372578063715018a6146103855780637c5b4a371461038d578063850bad94146103a057610227565b8063438209f5116101b357806359bcbd681161018257806359bcbd681461031e5780635c17623a146103315780635ea8cd12146103445780636575243f146103575780636a28f8281461036a57610227565b8063438209f5146102d05780634e45f095146102e55780634ed73d28146102f8578063552164ee1461030b57610227565b806321ce919d116101fa57806321ce919d1461026f5780632bdff851146102825780632f506b2014610295578063324a5562146102a85780633a4f6999146102bb57610227565b806314c20d571461022c57806319d8ac61146102415780631a39d8ef1461025f5780631ff6886614610267575b600080fd5b61023f61023a3660046127e7565b610492565b005b61024961077f565b6040516102569190612f35565b60405180910390f35b610249610785565b61023f61078b565b61024961027d3660046125a6565b6107e9565b61023f610290366004612740565b610817565b6102496102a3366004612834565b610b60565b61023f6102b636600461286e565b610b7d565b6102c3610bc7565b6040516102569190612f4c565b6102d8610bd7565b6040516102569190612a3f565b6102c36102f3366004612710565b610be0565b61023f6103063660046125d1565b610c07565b610249610319366004612710565b610e93565b6102c361032c366004612813565b610f07565b61023f61033f36600461288a565b610f3d565b61023f610352366004612710565b610f9d565b610249610365366004612813565b610fcc565b610249610fe5565b61023f61038036600461256e565b610feb565b61023f611037565b61023f61039b366004612710565b6110ab565b6102c36103ae366004612710565b611130565b6103c66103c1366004612665565b61113d565b60405161025691906129da565b6103db6112c4565b6040516102569190612916565b61023f6103f6366004612710565b6112d3565b61023f610409366004612710565b611559565b61024961041c366004612813565b61176f565b610249611788565b610249610437366004612813565b61178e565b61024961044a366004612710565b6117c0565b61023f611ac1565b6102d8611bfd565b610249611c08565b6103db611c0e565b6103db611c1d565b61023f61048536600461256e565b611c2c565b6103db611cd7565b61049a611bfd565b156104c05760405162461bcd60e51b81526004016104b790612de2565b60405180910390fd5b60105460ff16156104e35760405162461bcd60e51b81526004016104b790612d33565b6005548210156105055760405162461bcd60e51b81526004016104b790612d6a565b60005b600481101561055a5760048054600160a01b900460ff169083908390811061052c57fe5b602002015160ff1611156105525760405162461bcd60e51b81526004016104b790612af2565b600101610508565b50600354600b54604051620dce4760ea1b81526000926001600160a01b0316916337391c00916105929133918791899160040161292a565b602060405180830381600087803b1580156105ac57600080fd5b505af11580156105c0573d6000803e3d6000fd5b505050506040513d601f19601f820116820180604052508101906105e49190612728565b600b546000908152600760209081526040808320805460018101825590845282842001849055338352600a90915290205490915061062657600c805460010190555b336000908152600a6020908152604082208054600181018255908352912001819055600d546106559084611ce6565b600d5542600e55610664612393565b61066d8361113d565b905060005b600b81101561071f576106d68560096000600b54815260200190815260200160002060008585600b81106106a257fe5b60200201516001600160401b03166001600160401b0316815260200190815260200160002054611ce690919063ffffffff16565b600b80546000908152600960205260408120918590859081106106f557fe5b602090810291909101516001600160401b0316825281019190915260400160002055600101610672565b50600254610738906001600160a01b0316333087611d12565b336001600160a01b03167fe3d4187f6ca4248660cc0ac8b8056515bac4a8132be2eca31d6d0cc170722a7e836040516107719190612f35565b60405180910390a250505050565b600e5481565b600d5481565b6004546001600160a01b031633146107b55760405162461bcd60e51b81526004016104b790612e4e565b6107bd611bfd565b156107da5760405162461bcd60e51b81526004016104b790612f15565b6010805460ff19166001179055565b600a602052816000526040600020818154811061080257fe5b90600052602060002001600091509150505481565b61081f611bfd565b1561083c5760405162461bcd60e51b81526004016104b790612de2565b60105460ff161561085f5760405162461bcd60e51b81526004016104b790612d33565b6005548210156108815760405162461bcd60e51b81526004016104b790612d6a565b6000805b8251811015610b015760005b600481101561092c57600460149054906101000a900460ff1660ff168483815181106108b957fe5b602002602001015182600481106108cc57fe5b602002015160ff1611158015610908575060008483815181106108eb57fe5b602002602001015182600481106108fe57fe5b602002015160ff16115b6109245760405162461bcd60e51b81526004016104b790612af2565b600101610891565b5060035483516000916001600160a01b0316906337391c0090339087908690811061095357fe5b602002602001015188600b546040518563ffffffff1660e01b815260040161097e949392919061292a565b602060405180830381600087803b15801561099857600080fd5b505af11580156109ac573d6000803e3d6000fd5b505050506040513d601f19601f820116820180604052508101906109d09190612728565b600b546000908152600760209081526040808320805460018101825590845282842001849055338352600a909152902054909150610a1257600c805460010190555b336000908152600a6020908152604082208054600181018255908352912001819055600d54610a419086611ce6565b600d5542600e55610a528386611ce6565b9250610a5c612393565b610a78858481518110610a6b57fe5b602002602001015161113d565b905060005b600b811015610af657610aad8760096000600b54815260200190815260200160002060008585600b81106106a257fe5b600b8054600090815260096020526040812091859085908110610acc57fe5b602090810291909101516001600160401b0316825281019190915260400160002055600101610a7d565b505050600101610885565b50600254610b1a906001600160a01b0316333084611d12565b336001600160a01b03167f96c35ad1cc1743f26cb87980c38042de8082358ec6d171a7986d6e11dddfe85782604051610b539190612f35565b60405180910390a2505050565b600960209081526000928352604080842090915290825290205481565b6004546001600160a01b03163314610ba75760405162461bcd60e51b81526004016104b790612e4e565b6004805460ff909216600160a01b0260ff60a01b19909216919091179055565b600454600160a01b900460ff1681565b60105460ff1681565b600f8160048110610bed57fe5b60209182820401919006915054906101000a900460ff1681565b6000805b8251811015610dcb5760035483516001600160a01b0390911690636352211e90859084908110610c3757fe5b60200260200101516040518263ffffffff1660e01b8152600401610c5b9190612f35565b60206040518083038186803b158015610c7357600080fd5b505afa158015610c87573d6000803e3d6000fd5b505050506040513d601f19601f82011682018060405250810190610cab919061258a565b6001600160a01b0316336001600160a01b031614610cdb5760405162461bcd60e51b81526004016104b790612c7c565b60035483516001600160a01b03909116906336dbd2f990859084908110610cfe57fe5b60200260200101516040518263ffffffff1660e01b8152600401610d229190612f35565b60206040518083038186803b158015610d3a57600080fd5b505afa158015610d4e573d6000803e3d6000fd5b505050506040513d601f19601f82011682018060405250810190610d7291906126f0565b15610d8f5760405162461bcd60e51b81526004016104b790612d12565b6000610dad848381518110610da057fe5b60200260200101516117c0565b90508015610dc257610dbf8184611ce6565b92505b50600101610c0b565b50600354604051637431035560e01b81526001600160a01b0390911690637431035590610dfc908590600401612996565b600060405180830381600087803b158015610e1657600080fd5b505af1158015610e2a573d6000803e3d6000fd5b505050506000811115610e4e57600254610e4e906001600160a01b03163383611d6a565b336001600160a01b03167f6606374655494f5c0e2d6f392656e9777afd9ac5f61527d1bcad50b7e918a03e82604051610e879190612f35565b60405180910390a25050565b6000600b54821115610eb75760405162461bcd60e51b81526004016104b790612b1f565b610ebf611bfd565b158015610ecd5750600b5482145b15610edb5750600d54610f02565b60008281526008602052604081208054909190610ef457fe5b906000526020600020015490505b919050565b60066020528160005260406000208160048110610f2057fe5b602081049091015460ff601f9092166101000a9004169150829050565b6004546001600160a01b03163314610f675760405162461bcd60e51b81526004016104b790612e4e565b6040805160608101825260ff80861682528481166020830152831691810191909152610f979060019060036123b2565b50505050565b6004546001600160a01b03163314610fc75760405162461bcd60e51b81526004016104b790612e4e565b600555565b6007602052816000526040600020818154811061080257fe5b600b5481565b6000546001600160a01b031633146110155760405162461bcd60e51b81526004016104b790612e19565b600480546001600160a01b0319166001600160a01b0392909216919091179055565b6000546001600160a01b031633146110615760405162461bcd60e51b81526004016104b790612e19565b600080546040516001600160a01b03909116907f8be0079c531659141344cd1fd0a4f28419497f9722a3daafe3b4186f6b6457e0908390a3600080546001600160a01b0319169055565b6004546001600160a01b031633146110d55760405162461bcd60e51b81526004016104b790612e4e565b6002546110ec906001600160a01b03163383611d6a565b336001600160a01b03167f050d1c64cc22ce461b9bc14f6b73852566da02b03c155242bc63169d1fec42aa826040516111259190612f35565b60405180910390a250565b60018160038110610bed57fe5b611145612393565b61114d612445565b825160ff908116825260208085015182169083015260408085015182169083015260608085015190911690820152611183612393565b6060828101805160408086018051602080890180518a516201000094850264010000000092830266010000000000009092029190910101909601650100020003009081016001600160401b039081168b52855183518d51908702908a02010163010002009081018216948c0194909452885183518d51908702908a02010163010003009081018216978c0197909752885186518d51908702908a020101630200030090810182169a8c019a909a5288518651845190870299029890980190970101861660808a015280518a51840201610100908101871660a08b015284518b5185020161020001871660c08b015287519a518402909a0161030001861660e08a015283518151840201909101851698880198909852845197518102909701909101821661012086015291519151909402010190911661014082015292915050565b6000546001600160a01b031690565b6004546001600160a01b031633146112fd5760405162461bcd60e51b81526004016104b790612e4e565b611305611bfd565b156113225760405162461bcd60e51b81526004016104b790612aae565b60105460ff166113445760405162461bcd60e51b81526004016104b790612cdb565b6004546000908190600160a01b900460ff16436000190140825b600a81101561137b57611372600b54610e93565b5060010161135e565b5060005a905081600c54828860405160200161139a9493929190612a60565b60408051601f19818403018152908290528051602091820120600f805460ff191687830660010160ff811691909117909155600d5491985096506113e492859285918b9101612a60565b60408051601f19818403018152908290528051602091820120600f805460ff8884066001019081166101000261ff001990921691909117909155600e54919850965061143692859285918b9101612a60565b60408051808303601f19018152908290528051602091820120600f805460ff600189850601908116620100000262ff00001990921691909117909155909750955061148791849184918a9101612a4a565b60408051808303601f190181529181528151602092830120600f805460ff60018985060190811663010000000263ff00000019909216919091178255600b5460009081526006909552929093209097509095506114e5916004612463565b506114ee611d8e565b600b54600090815260086020526040902061150a916004612496565b506010805460ff19169055600b546040517fa13e935b188993737b3009d62bd916dcbe9e82d8236d75981eeadf26a1460d3d9061154990600f90612a0c565b60405180910390a2505050505050565b6003546040516331a9108f60e11b81526001600160a01b0390911690636352211e90611589908490600401612f35565b60206040518083038186803b1580156115a157600080fd5b505afa1580156115b5573d6000803e3d6000fd5b505050506040513d601f19601f820116820180604052508101906115d9919061258a565b6001600160a01b0316336001600160a01b0316146116095760405162461bcd60e51b81526004016104b790612c7c565b6003546040516336dbd2f960e01b81526001600160a01b03909116906336dbd2f990611639908490600401612f35565b60206040518083038186803b15801561165157600080fd5b505afa158015611665573d6000803e3d6000fd5b505050506040513d601f19601f8201168201806040525081019061168991906126f0565b156116a65760405162461bcd60e51b81526004016104b790612d12565b60006116b1826117c0565b600354604051630ae169a560e41b81529192506001600160a01b03169063ae169a50906116e2908590600401612f35565b600060405180830381600087803b1580156116fc57600080fd5b505af1158015611710573d6000803e3d6000fd5b50505050600081111561173457600254611734906001600160a01b03163383611d6a565b336001600160a01b03167f34fcbac0073d7c3d388e51312faf357774904998eeb8fca628b9e6f65ee1cbf78383604051610e87929190612f3e565b6008602052816000526040600020818154811061080257fe5b600c5481565b6000828152600860205260408120805460058490039081106117ac57fe5b906000526020600020015490505b92915050565b600354604051631bf1e00f60e01b815260009182916001600160a01b0390911690631bf1e00f906117f5908690600401612f35565b60206040518083038186803b15801561180d57600080fd5b505afa158015611821573d6000803e3d6000fd5b505050506040513d601f19601f820116820180604052508101906118459190612728565b905061184f612445565b600354604051635f8e26a760e01b81526001600160a01b0390911690635f8e26a79061187f908790600401612f35565b60806040518083038186803b15801561189757600080fd5b505afa1580156118ab573d6000803e3d6000fd5b505050506040513d601f19601f820116820180604052508101906118cf9190612680565b90506118d9612445565b600083815260066020526040808220815160808101928390529290916004918390855b825461010083900a900460ff168152602060019283018181049485019490930390920291018084116118fc579050505050505090508060006004811061193e57fe5b602002015160ff166119625760405162461bcd60e51b81526004016104b790612ace565b6000805b60048110156119ac5783816004811061197b57fe5b602002015160ff1683826004811061198f57fe5b602002015160ff1614156119a4578160010191505b600101611966565b5060006001821115611aa757600354604051637bd0606560e11b81526000916001600160a01b03169063f7a0c0ca906119e9908b90600401612f35565b60206040518083038186803b158015611a0157600080fd5b505afa158015611a15573d6000803e3d6000fd5b505050506040513d601f19601f82011682018060405250810190611a399190612728565b90506000611a806064611a7a60018760040360038110611a5557fe5b602081049091015460ff601f9092166101000a900416611a748b610e93565b90611ff3565b9061202d565b9050611aa281611a74611a938a8861178e565b611a7a8664e8d4a51000611ff3565b925050505b611ab68164e8d4a5100061202d565b979650505050505050565b6004546001600160a01b03163314611aeb5760405162461bcd60e51b81526004016104b790612e4e565b611af3611bfd565b611b0f5760405162461bcd60e51b81526004016104b790612eaa565b42600e556000600c819055600d55600f805463ffffffff191690556010805460ff19169055600b805460018101909155611b4a90600461178e565b611bcf57600154600b54600091611b7591606491611a7a9160ff90911690611a749060001901610e93565b604080516080810191829052919250611bcd918391601190600490826000855b825461010083900a900460ff16815260206001928301818104948501949093039092029101808411611b95579050505050505061205f565b505b600b546040517f01c3cbb0d62726ab09d163873ebf9aed99dd8dc08e57bc938f458132fd178cf690600090a2565b600f5460ff16151590565b60055481565b6002546001600160a01b031681565b6003546001600160a01b031681565b6000546001600160a01b03163314611c565760405162461bcd60e51b81526004016104b790612e19565b6001600160a01b038116611c7c5760405162461bcd60e51b81526004016104b790612b56565b600080546040516001600160a01b03808516939216917f8be0079c531659141344cd1fd0a4f28419497f9722a3daafe3b4186f6b6457e091a3600080546001600160a01b0319166001600160a01b0392909216919091179055565b6004546001600160a01b031681565b600082820183811015611d0b5760405162461bcd60e51b81526004016104b790612b9c565b9392505050565b610f97846323b872dd60e01b858585604051602401611d3393929190612959565b60408051601f198184030181529190526020810180516001600160e01b03166001600160e01b0319909316929092179091526121d0565b611d898363a9059cbb60e01b8484604051602401611d3392919061297d565b505050565b611d96612445565b611d9e612393565b604080516080810191829052611df191600f90600490826000855b825461010083900a900460ff16815260206001928301818104948501949093039092029101808411611db9579050505050505061113d565b600b54600081815260096020818152604080842086516001600160401b039081168652818452828620548787528585528885015190911686528184529185205495855292909152939450611e78918560025b60200201516001600160401b03166001600160401b031681526020019081526020016000205482611ce690919063ffffffff16565b600b546000908152600960205260408120919250611e999190856003611e43565b600b546000908152600960205260408120919250611eba9190856004611e43565b90506000611ed3611ecc846004611ff3565b839061225f565b600b54600081815260096020818152604080842060a08b01516001600160401b03168552808352908420549484529190529293509091611f1591876006611e43565b600b546000908152600960205260408120919250611f369190876007611e43565b600b546000908152600960205260408120919250611f579190876008611e43565b600b5460009081526009602081905260408220929350611f7a9291908890611e43565b600b546000908152600960205260408120919250611f9b919087600a611e43565b90506000611fc8611fad856003611ff3565b611fc2611fbb886006611ff3565b8590611ce6565b9061225f565b60408051608081018252600d5481526020810197909752860193909352505060608301525091505090565b600082612002575060006117ba565b8282028284828161200f57fe5b0414611d0b5760405162461bcd60e51b81526004016104b790612da1565b600080821161204e5760405162461bcd60e51b81526004016104b790612ca4565b81838161205757fe5b049392505050565b612067611bfd565b156120845760405162461bcd60e51b81526004016104b790612de2565b60005b60048110156120d95760048054600160a01b900460ff16908390839081106120ab57fe5b602002015160ff1611156120d15760405162461bcd60e51b81526004016104b790612bd3565b600101612087565b50600354600b54604051620dce4760ea1b81526000926001600160a01b0316916337391c00916121119130918791899160040161292a565b602060405180830381600087803b15801561212b57600080fd5b505af115801561213f573d6000803e3d6000fd5b505050506040513d601f19601f820116820180604052508101906121639190612728565b600b54600090815260076020908152604082208054600181018255908352912001819055600d549091506121979084611ce6565b600d5542600e5560405130907fe3d4187f6ca4248660cc0ac8b8056515bac4a8132be2eca31d6d0cc170722a7e90610b53908490612f35565b6060612225826040518060400160405280602081526020017f5361666545524332303a206c6f772d6c6576656c2063616c6c206661696c6564815250856001600160a01b03166122879092919063ffffffff16565b805190915015611d89578080602001905181019061224391906126f0565b611d895760405162461bcd60e51b81526004016104b790612ecb565b6000828211156122815760405162461bcd60e51b81526004016104b790612bff565b50900390565b6060612296848460008561229e565b949350505050565b6060824710156122c05760405162461bcd60e51b81526004016104b790612c36565b6122c985612354565b6122e55760405162461bcd60e51b81526004016104b790612e73565b60006060866001600160a01b0316858760405161230291906128fa565b60006040518083038185875af1925050503d806000811461233f576040519150601f19603f3d011682016040523d82523d6000602084013e612344565b606091505b5091509150611ab682828661235a565b3b151590565b60608315612369575081611d0b565b8251156123795782518084602001fd5b8160405162461bcd60e51b81526004016104b79190612a7b565b604051806101600160405280600b906020820280368337509192915050565b6001830191839082156124355791602002820160005b8382111561240657835183826101000a81548160ff021916908360ff16021790555092602001926001016020816000010492830192600103026123c8565b80156124335782816101000a81549060ff0219169055600101602081600001049283019260010302612406565b505b506124419291506124dd565b5090565b60405180608001604052806004906020820280368337509192915050565b6001830191839082156124355791601f016020900482015b8281111561243557825482559160010191906001019061247b565b8280548282559060005260206000209081019282156124d1579160200282015b828111156124d15782518255916020019190600101906124b6565b506124419291506124f6565b5b8082111561244157805460ff191681556001016124de565b5b8082111561244157600081556001016124f7565b600082601f83011261251b578081fd5b6125256080612f5a565b905080828460808501111561253957600080fd5b60005b600481101561256557813561255081612fe3565b8352602092830192919091019060010161253c565b50505092915050565b60006020828403121561257f578081fd5b8135611d0b81612fcb565b60006020828403121561259b578081fd5b8151611d0b81612fcb565b600080604083850312156125b8578081fd5b82356125c381612fcb565b946020939093013593505050565b600060208083850312156125e3578182fd5b82356001600160401b038111156125f8578283fd5b8301601f81018513612608578283fd5b803561261b61261682612f80565b612f5a565b8181528381019083850185840285018601891015612637578687fd5b8694505b8385101561265957803583526001949094019391850191850161263b565b50979650505050505050565b600060808284031215612676578081fd5b611d0b838361250b565b600060808284031215612691578081fd5b82601f83011261269f578081fd5b6126a96080612f5a565b8083856080860111156126ba578384fd5b835b60048110156126e55781516126d081612fe3565b845260209384019391909101906001016126bc565b509095945050505050565b600060208284031215612701578081fd5b81518015158114611d0b578182fd5b600060208284031215612721578081fd5b5035919050565b600060208284031215612739578081fd5b5051919050565b60008060408385031215612752578182fd5b823591506020808401356001600160401b0381111561276f578283fd5b8401601f8101861361277f578283fd5b803561278d61261682612f80565b818152838101908385016080808502860187018b10156127ab578788fd5b8795505b848610156127d7576127c18b8361250b565b84526001959095019492860192908101906127af565b5096999098509650505050505050565b60008060a083850312156127f9578182fd5b8235915061280a846020850161250b565b90509250929050565b60008060408385031215612825578182fd5b50508035926020909101359150565b60008060408385031215612846578182fd5b8235915060208301356001600160401b0381168114612863578182fd5b809150509250929050565b60006020828403121561287f578081fd5b8135611d0b81612fe3565b60008060006060848603121561289e578081fd5b83356128a981612fe3565b925060208401356128b981612fe3565b915060408401356128c981612fe3565b809150509250925092565b8060005b6004811015610f9757815160ff168452602093840193909101906001016128d8565b6000825161290c818460208701612f9f565b9190910192915050565b6001600160a01b0391909116815260200190565b6001600160a01b038516815260e0810161294760208301866128d4565b60a082019390935260c0015292915050565b6001600160a01b039384168152919092166020820152604081019190915260600190565b6001600160a01b03929092168252602082015260400190565b6020808252825182820181905260009190848201906040850190845b818110156129ce578351835292840192918401916001016129b2565b50909695505050505050565b6101608101818360005b600b8110156125655781516001600160401b03168352602092830192909101906001016129e4565b905460ff8082168352600882901c81166020840152601082901c8116604084015260189190911c16606082015260800190565b901515815260200190565b9283526020830191909152604082015260600190565b93845260208401929092526040830152606082015260800190565b6000602082528251806020840152612a9a816040850160208701612f9f565b601f01601f19169190910160400192915050565b60208082526006908201526572657365743f60d01b604082015260600190565b6020808252600a90820152691b9bdd08191c985dd95960b21b604082015260600190565b602080825260139082015272657863656564206e756d6265722073636f706560681b604082015260600190565b60208082526019908201527f5f6973737565496e646578203c3d206973737565496e64657800000000000000604082015260600190565b60208082526026908201527f4f776e61626c653a206e6577206f776e657220697320746865207a65726f206160408201526564647265737360d01b606082015260800190565b6020808252601b908201527f536166654d6174683a206164646974696f6e206f766572666c6f770000000000604082015260600190565b60208082526012908201527165786365656420746865206d6178696d756d60701b604082015260600190565b6020808252601e908201527f536166654d6174683a207375627472616374696f6e206f766572666c6f770000604082015260600190565b60208082526026908201527f416464726573733a20696e73756666696369656e742062616c616e636520666f6040820152651c8818d85b1b60d21b606082015260800190565b6020808252600e908201526d3737ba10333937b69037bbb732b960911b604082015260600190565b6020808252601a908201527f536166654d6174683a206469766973696f6e206279207a65726f000000000000604082015260600190565b60208082526019908201527f656e7465722064726177696e6720706861736520666972737400000000000000604082015260600190565b60208082526007908201526618db185a5b595960ca1b604082015260600190565b60208082526018908201527f64726177696e672c2063616e206e6f7420627579206e6f770000000000000000604082015260600190565b60208082526019908201527f7072696365206d7573742061626f7665206d696e507269636500000000000000604082015260600190565b60208082526021908201527f536166654d6174683a206d756c7469706c69636174696f6e206f766572666c6f6040820152607760f81b606082015260800190565b60208082526017908201527f6472617765642c2063616e206e6f7420627579206e6f77000000000000000000604082015260600190565b6020808252818101527f4f776e61626c653a2063616c6c6572206973206e6f7420746865206f776e6572604082015260600190565b6020808252600b908201526a61646d696e3a207775743f60a81b604082015260600190565b6020808252601d908201527f416464726573733a2063616c6c20746f206e6f6e2d636f6e7472616374000000604082015260600190565b6020808252600790820152666472617765643f60c81b604082015260600190565b6020808252602a908201527f5361666545524332303a204552433230206f7065726174696f6e20646964206e6040820152691bdd081cdd58d8d9595960b21b606082015260800190565b602080825260069082015265191c985dd95960d21b604082015260600190565b90815260200190565b918252602082015260400190565b60ff91909116815260200190565b6040518181016001600160401b0381118282101715612f7857600080fd5b604052919050565b60006001600160401b03821115612f95578081fd5b5060209081020190565b60005b83811015612fba578181015183820152602001612fa2565b83811115610f975750506000910152565b6001600160a01b0381168114612fe057600080fd5b50565b60ff81168114612fe057600080fdfea264697066735822122003e4178f1d3d48a69914a9b9f16e90e3a5ca402a2d4a219eec3049d5c4bb296f64736f6c634300060c0033",
  "immutableReferences": {},
  "source": "pragma solidity 0.6.12;\npragma experimental ABIEncoderV2;\n\nimport \"./LotteryNFT.sol\";\nimport \"./LotteryOwnable.sol\";\nimport \"@openzeppelin/contracts/token/ERC20/IERC20.sol\";\nimport \"@openzeppelin/contracts/token/ERC20/SafeERC20.sol\";\nimport \"@openzeppelin/contracts/math/SafeMath.sol\";\n\n\n// import \"@nomiclabs/buidler/console.sol\";\n\n// 4 numbers\ncontract Lottery is LotteryOwnable {\n    using SafeMath for uint256;\n    using SafeMath for uint8;\n    using SafeERC20 for IERC20;\n\n    uint8 constant keyLengthForEachBuy = 11;\n    // Allocation for first/sencond/third reward\n    uint8[3] public allocation;\n    // The TOKEN to buy lottery\n    IERC20 public fanz;\n    // The Lottery NFT for tickets\n    LotteryNFT public lotteryNFT;\n    // adminAddress\n    address public adminAddress;\n    // maxNumber\n    uint8 public maxNumber;\n    // minPrice, if decimal is not 18, please reset it\n    uint256 public minPrice;\n\n    // =================================\n\n    // issueId => winningNumbers[numbers]\n    mapping (uint256 => uint8[4]) public historyNumbers;\n    // issueId => [tokenId]\n    mapping (uint256 => uint256[]) public lotteryInfo;\n    // issueId => [totalAmount, firstMatchAmount, secondMatchingAmount, thirdMatchingAmount]\n    mapping (uint256 => uint256[]) public historyAmount;\n    // issueId => trickyNumber => buyAmountSum\n    mapping (uint256 => mapping(uint64 => uint256)) public userBuyAmountSum;\n    // address => [tokenId]\n    mapping (address => uint256[]) public userInfo;\n\n    uint256 public issueIndex = 0;\n    uint256 public totalAddresses = 0;\n    uint256 public totalAmount = 0;\n    uint256 public lastTimestamp;\n\n    uint8[4] public winningNumbers;\n\n    // default false\n    bool public drawingPhase;\n\n    // =================================\n\n    event Buy(address indexed user, uint256 tokenId);\n    event Drawing(uint256 indexed issueIndex, uint8[4] winningNumbers);\n    event Claim(address indexed user, uint256 tokenid, uint256 amount);\n    event DevWithdraw(address indexed user, uint256 amount);\n    event Reset(uint256 indexed issueIndex);\n    event MultiClaim(address indexed user, uint256 amount);\n    event MultiBuy(address indexed user, uint256 amount);\n\n    constructor(\n        IERC20 _fanz,\n        LotteryNFT _lottery,\n        uint256 _minPrice,\n        uint8 _maxNumber,\n        address _owner,\n        address _adminAddress\n\n    ) public {\n        fanz = _fanz;\n        lotteryNFT = _lottery;\n        minPrice = _minPrice;\n        maxNumber = _maxNumber;\n        adminAddress = _adminAddress;\n        lastTimestamp = block.timestamp;\n        allocation = [60, 20, 10];\n        initOwner(_owner);\n    }\n\n\n    uint8[4] private nullTicket = [0,0,0,0];\n\n    modifier onlyAdmin() {\n        require(msg.sender == adminAddress, \"admin: wut?\");\n        _;\n    }\n\n    function drawed() public view returns(bool) {\n        return winningNumbers[0] != 0;\n    }\n\n    function reset() external onlyAdmin {\n        require(drawed(), \"drawed?\");\n        lastTimestamp = block.timestamp;\n        totalAddresses = 0;\n        totalAmount = 0;\n        winningNumbers[0]=0;\n        winningNumbers[1]=0;\n        winningNumbers[2]=0;\n        winningNumbers[3]=0;\n        drawingPhase = false;\n        issueIndex = issueIndex +1;\n        if(getMatchingRewardAmount(issueIndex-1, 4) == 0) {\n            uint256 amount = getTotalRewards(issueIndex-1).mul(allocation[0]).div(100);\n            internalBuy(amount, nullTicket);\n        }\n        emit Reset(issueIndex);\n    }\n\n    function enterDrawingPhase() external onlyAdmin {\n        require(!drawed(), 'drawed');\n        drawingPhase = true;\n    }\n\n    // add externalRandomNumber to prevent node validators exploiting\n    function drawing(uint256 _externalRandomNumber) external onlyAdmin {\n        require(!drawed(), \"reset?\");\n        require(drawingPhase, \"enter drawing phase first\");\n        bytes32 _structHash;\n        uint256 _randomNumber;\n        uint8 _maxNumber = maxNumber;\n        bytes32 _blockhash = blockhash(block.number-1);\n\n        // waste some gas fee here\n        for (uint i = 0; i < 10; i++) {\n            getTotalRewards(issueIndex);\n        }\n        uint256 gasleft = gasleft();\n\n        // 1\n        _structHash = keccak256(\n            abi.encode(\n                _blockhash,\n                totalAddresses,\n                gasleft,\n                _externalRandomNumber\n            )\n        );\n        _randomNumber  = uint256(_structHash);\n        assembly {_randomNumber := add(mod(_randomNumber, _maxNumber),1)}\n        winningNumbers[0]=uint8(_randomNumber);\n\n        // 2\n        _structHash = keccak256(\n            abi.encode(\n                _blockhash,\n                totalAmount,\n                gasleft,\n                _externalRandomNumber\n            )\n        );\n        _randomNumber  = uint256(_structHash);\n        assembly {_randomNumber := add(mod(_randomNumber, _maxNumber),1)}\n        winningNumbers[1]=uint8(_randomNumber);\n\n        // 3\n        _structHash = keccak256(\n            abi.encode(\n                _blockhash,\n                lastTimestamp,\n                gasleft,\n                _externalRandomNumber\n            )\n        );\n        _randomNumber  = uint256(_structHash);\n        assembly {_randomNumber := add(mod(_randomNumber, _maxNumber),1)}\n        winningNumbers[2]=uint8(_randomNumber);\n\n        // 4\n        _structHash = keccak256(\n            abi.encode(\n                _blockhash,\n                gasleft,\n                _externalRandomNumber\n            )\n        );\n        _randomNumber  = uint256(_structHash);\n        assembly {_randomNumber := add(mod(_randomNumber, _maxNumber),1)}\n        winningNumbers[3]=uint8(_randomNumber);\n        historyNumbers[issueIndex] = winningNumbers;\n        historyAmount[issueIndex] = calculateMatchingRewardAmount();\n        drawingPhase = false;\n        emit Drawing(issueIndex, winningNumbers);\n    }\n\n    function internalBuy(uint256 _price, uint8[4] memory _numbers) internal {\n        require (!drawed(), 'drawed, can not buy now');\n        for (uint i = 0; i < 4; i++) {\n            require (_numbers[i] <= maxNumber, 'exceed the maximum');\n        }\n        uint256 tokenId = lotteryNFT.newLotteryItem(address(this), _numbers, _price, issueIndex);\n        lotteryInfo[issueIndex].push(tokenId);\n        totalAmount = totalAmount.add(_price);\n        lastTimestamp = block.timestamp;\n        emit Buy(address(this), tokenId);\n\n    }\n\n    function buy(uint256 _price, uint8[4] memory _numbers) external {\n        require(!drawed(), 'drawed, can not buy now');\n        require(!drawingPhase, 'drawing, can not buy now');\n        require (_price >= minPrice, 'price must above minPrice');\n        for (uint i = 0; i < 4; i++) {\n            require (_numbers[i] <= maxNumber, 'exceed number scope');\n        }\n        uint256 tokenId = lotteryNFT.newLotteryItem(msg.sender, _numbers, _price, issueIndex);\n        lotteryInfo[issueIndex].push(tokenId);\n        if (userInfo[msg.sender].length == 0) {\n            totalAddresses = totalAddresses + 1;\n        }\n        userInfo[msg.sender].push(tokenId);\n        totalAmount = totalAmount.add(_price);\n        lastTimestamp = block.timestamp;\n        uint64[keyLengthForEachBuy] memory userNumberIndex = generateNumberIndexKey(_numbers);\n        for (uint i = 0; i < keyLengthForEachBuy; i++) {\n            userBuyAmountSum[issueIndex][userNumberIndex[i]]=userBuyAmountSum[issueIndex][userNumberIndex[i]].add(_price);\n        }\n        fanz.safeTransferFrom(address(msg.sender), address(this), _price);\n        emit Buy(msg.sender, tokenId);\n    }\n\n    function  multiBuy(uint256 _price, uint8[4][] memory _numbers) external {\n        require (!drawed(), 'drawed, can not buy now');\n        require(!drawingPhase, 'drawing, can not buy now');\n        require (_price >= minPrice, 'price must above minPrice');\n        uint256 totalPrice  = 0;\n        for (uint i = 0; i < _numbers.length; i++) {\n            for (uint j = 0; j < 4; j++) {\n                require (_numbers[i][j] <= maxNumber && _numbers[i][j] > 0, 'exceed number scope');\n            }\n            uint256 tokenId = lotteryNFT.newLotteryItem(msg.sender, _numbers[i], _price, issueIndex);\n            lotteryInfo[issueIndex].push(tokenId);\n            if (userInfo[msg.sender].length == 0) {\n                totalAddresses = totalAddresses + 1;\n            }\n            userInfo[msg.sender].push(tokenId);\n            totalAmount = totalAmount.add(_price);\n            lastTimestamp = block.timestamp;\n            totalPrice = totalPrice.add(_price);\n            uint64[keyLengthForEachBuy] memory numberIndexKey = generateNumberIndexKey(_numbers[i]);\n            for (uint k = 0; k < keyLengthForEachBuy; k++) {\n                userBuyAmountSum[issueIndex][numberIndexKey[k]]=userBuyAmountSum[issueIndex][numberIndexKey[k]].add(_price);\n            }\n        }\n        fanz.safeTransferFrom(address(msg.sender), address(this), totalPrice);\n        emit MultiBuy(msg.sender, totalPrice);\n    }\n\n    function claimReward(uint256 _tokenId) external {\n        require(msg.sender == lotteryNFT.ownerOf(_tokenId), \"not from owner\");\n        require (!lotteryNFT.getClaimStatus(_tokenId), \"claimed\");\n        uint256 reward = getRewardView(_tokenId);\n        lotteryNFT.claimReward(_tokenId);\n        if(reward>0) {\n            fanz.safeTransfer(address(msg.sender), reward);\n        }\n        emit Claim(msg.sender, _tokenId, reward);\n    }\n\n    function  multiClaim(uint256[] memory _tickets) external {\n        uint256 totalReward = 0;\n        for (uint i = 0; i < _tickets.length; i++) {\n            require (msg.sender == lotteryNFT.ownerOf(_tickets[i]), \"not from owner\");\n            require (!lotteryNFT.getClaimStatus(_tickets[i]), \"claimed\");\n            uint256 reward = getRewardView(_tickets[i]);\n            if(reward>0) {\n                totalReward = reward.add(totalReward);\n            }\n        }\n        lotteryNFT.multiClaimReward(_tickets);\n        if(totalReward>0) {\n            fanz.safeTransfer(address(msg.sender), totalReward);\n        }\n        emit MultiClaim(msg.sender, totalReward);\n    }\n\n    function generateNumberIndexKey(uint8[4] memory number) public pure returns (uint64[keyLengthForEachBuy] memory) {\n        uint64[4] memory tempNumber;\n        tempNumber[0]=uint64(number[0]);\n        tempNumber[1]=uint64(number[1]);\n        tempNumber[2]=uint64(number[2]);\n        tempNumber[3]=uint64(number[3]);\n\n        uint64[keyLengthForEachBuy] memory result;\n        result[0] = tempNumber[0]*256*256*256*256*256*256 + 1*256*256*256*256*256 + tempNumber[1]*256*256*256*256 + 2*256*256*256 + tempNumber[2]*256*256 + 3*256 + tempNumber[3];\n\n        result[1] = tempNumber[0]*256*256*256*256 + 1*256*256*256 + tempNumber[1]*256*256 + 2*256+ tempNumber[2];\n        result[2] = tempNumber[0]*256*256*256*256 + 1*256*256*256 + tempNumber[1]*256*256 + 3*256+ tempNumber[3];\n        result[3] = tempNumber[0]*256*256*256*256 + 2*256*256*256 + tempNumber[2]*256*256 + 3*256 + tempNumber[3];\n        result[4] = 1*256*256*256*256*256 + tempNumber[1]*256*256*256*256 + 2*256*256*256 + tempNumber[2]*256*256 + 3*256 + tempNumber[3];\n\n        result[5] = tempNumber[0]*256*256 + 1*256+ tempNumber[1];\n        result[6] = tempNumber[0]*256*256 + 2*256+ tempNumber[2];\n        result[7] = tempNumber[0]*256*256 + 3*256+ tempNumber[3];\n        result[8] = 1*256*256*256 + tempNumber[1]*256*256 + 2*256 + tempNumber[2];\n        result[9] = 1*256*256*256 + tempNumber[1]*256*256 + 3*256 + tempNumber[3];\n        result[10] = 2*256*256*256 + tempNumber[2]*256*256 + 3*256 + tempNumber[3];\n\n        return result;\n    }\n\n    function calculateMatchingRewardAmount() internal view returns (uint256[4] memory) {\n        uint64[keyLengthForEachBuy] memory numberIndexKey = generateNumberIndexKey(winningNumbers);\n\n        uint256 totalAmout1 = userBuyAmountSum[issueIndex][numberIndexKey[0]];\n\n        uint256 sumForTotalAmout2 = userBuyAmountSum[issueIndex][numberIndexKey[1]];\n        sumForTotalAmout2 = sumForTotalAmout2.add(userBuyAmountSum[issueIndex][numberIndexKey[2]]);\n        sumForTotalAmout2 = sumForTotalAmout2.add(userBuyAmountSum[issueIndex][numberIndexKey[3]]);\n        sumForTotalAmout2 = sumForTotalAmout2.add(userBuyAmountSum[issueIndex][numberIndexKey[4]]);\n\n        uint256 totalAmout2 = sumForTotalAmout2.sub(totalAmout1.mul(4));\n\n        uint256 sumForTotalAmout3 = userBuyAmountSum[issueIndex][numberIndexKey[5]];\n        sumForTotalAmout3 = sumForTotalAmout3.add(userBuyAmountSum[issueIndex][numberIndexKey[6]]);\n        sumForTotalAmout3 = sumForTotalAmout3.add(userBuyAmountSum[issueIndex][numberIndexKey[7]]);\n        sumForTotalAmout3 = sumForTotalAmout3.add(userBuyAmountSum[issueIndex][numberIndexKey[8]]);\n        sumForTotalAmout3 = sumForTotalAmout3.add(userBuyAmountSum[issueIndex][numberIndexKey[9]]);\n        sumForTotalAmout3 = sumForTotalAmout3.add(userBuyAmountSum[issueIndex][numberIndexKey[10]]);\n\n        uint256 totalAmout3 = sumForTotalAmout3.add(totalAmout1.mul(6)).sub(sumForTotalAmout2.mul(3));\n\n        return [totalAmount, totalAmout1, totalAmout2, totalAmout3];\n    }\n\n    function getMatchingRewardAmount(uint256 _issueIndex, uint256 _matchingNumber) public view returns (uint256) {\n        return historyAmount[_issueIndex][5 - _matchingNumber];\n    }\n\n    function getTotalRewards(uint256 _issueIndex) public view returns(uint256) {\n        require (_issueIndex <= issueIndex, '_issueIndex <= issueIndex');\n\n        if(!drawed() && _issueIndex == issueIndex) {\n            return totalAmount;\n        }\n        return historyAmount[_issueIndex][0];\n    }\n\n    function getRewardView(uint256 _tokenId) public view returns(uint256) {\n        uint256 _issueIndex = lotteryNFT.getLotteryIssueIndex(_tokenId);\n        uint8[4] memory lotteryNumbers = lotteryNFT.getLotteryNumbers(_tokenId);\n        uint8[4] memory _winningNumbers = historyNumbers[_issueIndex];\n        require(_winningNumbers[0] != 0, \"not drawed\");\n\n        uint256 matchingNumber = 0;\n        for (uint i = 0; i < lotteryNumbers.length; i++) {\n            if (_winningNumbers[i] == lotteryNumbers[i]) {\n                matchingNumber= matchingNumber +1;\n            }\n        }\n        uint256 reward = 0;\n        if (matchingNumber > 1) {\n            uint256 amount = lotteryNFT.getLotteryAmount(_tokenId);\n            uint256 poolAmount = getTotalRewards(_issueIndex).mul(allocation[4-matchingNumber]).div(100);\n            reward = amount.mul(1e12).div(getMatchingRewardAmount(_issueIndex, matchingNumber)).mul(poolAmount);\n        }\n        return reward.div(1e12);\n    }\n\n\n    // Update admin address by the previous dev.\n    function setAdmin(address _adminAddress) public onlyOwner {\n        adminAddress = _adminAddress;\n    }\n\n    // Withdraw without caring about rewards. EMERGENCY ONLY.\n    function adminWithdraw(uint256 _amount) public onlyAdmin {\n        fanz.safeTransfer(address(msg.sender), _amount);\n        emit DevWithdraw(msg.sender, _amount);\n    }\n\n    // Set the minimum price for one ticket\n    function setMinPrice(uint256 _price) external onlyAdmin {\n        minPrice = _price;\n    }\n\n    // Set the minimum price for one ticket\n    function setMaxNumber(uint8 _maxNumber) external onlyAdmin {\n        maxNumber = _maxNumber;\n    }\n\n    // Set the allocation for one reward\n    function setAllocation(uint8 _allcation1, uint8 _allcation2, uint8 _allcation3) external onlyAdmin {\n        allocation = [_allcation1, _allcation2, _allcation3];\n    }\n\n}",
  "sourcePath": "/Users/canaydin/Development/GitHub/fanz-contracts/contracts/lottery/Lottery.sol",
  "compiler": {
    "name": "solc",
    "version": "0.6.12+commit.27d51765.Emscripten.clang"
  },
  "schemaVersion": "3.4.0",
  "updatedAt": "2021-05-01T21:12:44.238Z",
  "networkType": "ethereum",
  "devdoc": {
    "kind": "dev",
    "methods": {
      "owner()": {
        "details": "Returns the address of the current owner."
      },
      "renounceOwnership()": {
        "details": "Leaves the contract without owner. It will not be possible to call `onlyOwner` functions anymore. Can only be called by the current owner. NOTE: Renouncing ownership will leave the contract without an owner, thereby removing any functionality that is only available to the owner."
      },
      "transferOwnership(address)": {
        "details": "Transfers ownership of the contract to a new account (`newOwner`). Can only be called by the current owner."
      }
    },
    "version": 1
  },
  "userdoc": {
    "kind": "user",
    "methods": {},
    "version": 1
  }
}