{
  "contractName": "LotteryNFT",
  "abi": [
    {
      "inputs": [],
      "stateMutability": "nonpayable",
      "type": "constructor"
    },
    {
      "anonymous": false,
      "inputs": [
        {
          "indexed": true,
          "internalType": "address",
          "name": "owner",
          "type": "address"
        },
        {
          "indexed": true,
          "internalType": "address",
          "name": "approved",
          "type": "address"
        },
        {
          "indexed": true,
          "internalType": "uint256",
          "name": "tokenId",
          "type": "uint256"
        }
      ],
      "name": "Approval",
      "type": "event"
    },
    {
      "anonymous": false,
      "inputs": [
        {
          "indexed": true,
          "internalType": "address",
          "name": "owner",
          "type": "address"
        },
        {
          "indexed": true,
          "internalType": "address",
          "name": "operator",
          "type": "address"
        },
        {
          "indexed": false,
          "internalType": "bool",
          "name": "approved",
          "type": "bool"
        }
      ],
      "name": "ApprovalForAll",
      "type": "event"
    },
    {
      "anonymous": false,
      "inputs": [
        {
          "indexed": true,
          "internalType": "address",
          "name": "previousOwner",
          "type": "address"
        },
        {
          "indexed": true,
          "internalType": "address",
          "name": "newOwner",
          "type": "address"
        }
      ],
      "name": "OwnershipTransferred",
      "type": "event"
    },
    {
      "anonymous": false,
      "inputs": [
        {
          "indexed": true,
          "internalType": "address",
          "name": "from",
          "type": "address"
        },
        {
          "indexed": true,
          "internalType": "address",
          "name": "to",
          "type": "address"
        },
        {
          "indexed": true,
          "internalType": "uint256",
          "name": "tokenId",
          "type": "uint256"
        }
      ],
      "name": "Transfer",
      "type": "event"
    },
    {
      "inputs": [
        {
          "internalType": "address",
          "name": "to",
          "type": "address"
        },
        {
          "internalType": "uint256",
          "name": "tokenId",
          "type": "uint256"
        }
      ],
      "name": "approve",
      "outputs": [],
      "stateMutability": "nonpayable",
      "type": "function"
    },
    {
      "inputs": [
        {
          "internalType": "address",
          "name": "owner",
          "type": "address"
        }
      ],
      "name": "balanceOf",
      "outputs": [
        {
          "internalType": "uint256",
          "name": "",
          "type": "uint256"
        }
      ],
      "stateMutability": "view",
      "type": "function",
      "constant": true
    },
    {
      "inputs": [],
      "name": "baseURI",
      "outputs": [
        {
          "internalType": "string",
          "name": "",
          "type": "string"
        }
      ],
      "stateMutability": "view",
      "type": "function",
      "constant": true
    },
    {
      "inputs": [
        {
          "internalType": "uint256",
          "name": "",
          "type": "uint256"
        }
      ],
      "name": "claimInfo",
      "outputs": [
        {
          "internalType": "bool",
          "name": "",
          "type": "bool"
        }
      ],
      "stateMutability": "view",
      "type": "function",
      "constant": true
    },
    {
      "inputs": [
        {
          "internalType": "uint256",
          "name": "tokenId",
          "type": "uint256"
        }
      ],
      "name": "getApproved",
      "outputs": [
        {
          "internalType": "address",
          "name": "",
          "type": "address"
        }
      ],
      "stateMutability": "view",
      "type": "function",
      "constant": true
    },
    {
      "inputs": [
        {
          "internalType": "address",
          "name": "owner",
          "type": "address"
        },
        {
          "internalType": "address",
          "name": "operator",
          "type": "address"
        }
      ],
      "name": "isApprovedForAll",
      "outputs": [
        {
          "internalType": "bool",
          "name": "",
          "type": "bool"
        }
      ],
      "stateMutability": "view",
      "type": "function",
      "constant": true
    },
    {
      "inputs": [
        {
          "internalType": "uint256",
          "name": "",
          "type": "uint256"
        }
      ],
      "name": "issueIndex",
      "outputs": [
        {
          "internalType": "uint256",
          "name": "",
          "type": "uint256"
        }
      ],
      "stateMutability": "view",
      "type": "function",
      "constant": true
    },
    {
      "inputs": [
        {
          "internalType": "uint256",
          "name": "",
          "type": "uint256"
        }
      ],
      "name": "lotteryAmount",
      "outputs": [
        {
          "internalType": "uint256",
          "name": "",
          "type": "uint256"
        }
      ],
      "stateMutability": "view",
      "type": "function",
      "constant": true
    },
    {
      "inputs": [
        {
          "internalType": "uint256",
          "name": "",
          "type": "uint256"
        },
        {
          "internalType": "uint256",
          "name": "",
          "type": "uint256"
        }
      ],
      "name": "lotteryInfo",
      "outputs": [
        {
          "internalType": "uint8",
          "name": "",
          "type": "uint8"
        }
      ],
      "stateMutability": "view",
      "type": "function",
      "constant": true
    },
    {
      "inputs": [],
      "name": "name",
      "outputs": [
        {
          "internalType": "string",
          "name": "",
          "type": "string"
        }
      ],
      "stateMutability": "view",
      "type": "function",
      "constant": true
    },
    {
      "inputs": [],
      "name": "owner",
      "outputs": [
        {
          "internalType": "address",
          "name": "",
          "type": "address"
        }
      ],
      "stateMutability": "view",
      "type": "function",
      "constant": true
    },
    {
      "inputs": [
        {
          "internalType": "uint256",
          "name": "tokenId",
          "type": "uint256"
        }
      ],
      "name": "ownerOf",
      "outputs": [
        {
          "internalType": "address",
          "name": "",
          "type": "address"
        }
      ],
      "stateMutability": "view",
      "type": "function",
      "constant": true
    },
    {
      "inputs": [],
      "name": "renounceOwnership",
      "outputs": [],
      "stateMutability": "nonpayable",
      "type": "function"
    },
    {
      "inputs": [
        {
          "internalType": "address",
          "name": "from",
          "type": "address"
        },
        {
          "internalType": "address",
          "name": "to",
          "type": "address"
        },
        {
          "internalType": "uint256",
          "name": "tokenId",
          "type": "uint256"
        }
      ],
      "name": "safeTransferFrom",
      "outputs": [],
      "stateMutability": "nonpayable",
      "type": "function"
    },
    {
      "inputs": [
        {
          "internalType": "address",
          "name": "from",
          "type": "address"
        },
        {
          "internalType": "address",
          "name": "to",
          "type": "address"
        },
        {
          "internalType": "uint256",
          "name": "tokenId",
          "type": "uint256"
        },
        {
          "internalType": "bytes",
          "name": "_data",
          "type": "bytes"
        }
      ],
      "name": "safeTransferFrom",
      "outputs": [],
      "stateMutability": "nonpayable",
      "type": "function"
    },
    {
      "inputs": [
        {
          "internalType": "address",
          "name": "operator",
          "type": "address"
        },
        {
          "internalType": "bool",
          "name": "approved",
          "type": "bool"
        }
      ],
      "name": "setApprovalForAll",
      "outputs": [],
      "stateMutability": "nonpayable",
      "type": "function"
    },
    {
      "inputs": [
        {
          "internalType": "bytes4",
          "name": "interfaceId",
          "type": "bytes4"
        }
      ],
      "name": "supportsInterface",
      "outputs": [
        {
          "internalType": "bool",
          "name": "",
          "type": "bool"
        }
      ],
      "stateMutability": "view",
      "type": "function",
      "constant": true
    },
    {
      "inputs": [],
      "name": "symbol",
      "outputs": [
        {
          "internalType": "string",
          "name": "",
          "type": "string"
        }
      ],
      "stateMutability": "view",
      "type": "function",
      "constant": true
    },
    {
      "inputs": [
        {
          "internalType": "uint256",
          "name": "index",
          "type": "uint256"
        }
      ],
      "name": "tokenByIndex",
      "outputs": [
        {
          "internalType": "uint256",
          "name": "",
          "type": "uint256"
        }
      ],
      "stateMutability": "view",
      "type": "function",
      "constant": true
    },
    {
      "inputs": [
        {
          "internalType": "address",
          "name": "owner",
          "type": "address"
        },
        {
          "internalType": "uint256",
          "name": "index",
          "type": "uint256"
        }
      ],
      "name": "tokenOfOwnerByIndex",
      "outputs": [
        {
          "internalType": "uint256",
          "name": "",
          "type": "uint256"
        }
      ],
      "stateMutability": "view",
      "type": "function",
      "constant": true
    },
    {
      "inputs": [
        {
          "internalType": "uint256",
          "name": "tokenId",
          "type": "uint256"
        }
      ],
      "name": "tokenURI",
      "outputs": [
        {
          "internalType": "string",
          "name": "",
          "type": "string"
        }
      ],
      "stateMutability": "view",
      "type": "function",
      "constant": true
    },
    {
      "inputs": [],
      "name": "totalSupply",
      "outputs": [
        {
          "internalType": "uint256",
          "name": "",
          "type": "uint256"
        }
      ],
      "stateMutability": "view",
      "type": "function",
      "constant": true
    },
    {
      "inputs": [
        {
          "internalType": "address",
          "name": "from",
          "type": "address"
        },
        {
          "internalType": "address",
          "name": "to",
          "type": "address"
        },
        {
          "internalType": "uint256",
          "name": "tokenId",
          "type": "uint256"
        }
      ],
      "name": "transferFrom",
      "outputs": [],
      "stateMutability": "nonpayable",
      "type": "function"
    },
    {
      "inputs": [
        {
          "internalType": "address",
          "name": "newOwner",
          "type": "address"
        }
      ],
      "name": "transferOwnership",
      "outputs": [],
      "stateMutability": "nonpayable",
      "type": "function"
    },
    {
      "inputs": [
        {
          "internalType": "address",
          "name": "player",
          "type": "address"
        },
        {
          "internalType": "uint8[4]",
          "name": "_lotteryNumbers",
          "type": "uint8[4]"
        },
        {
          "internalType": "uint256",
          "name": "_amount",
          "type": "uint256"
        },
        {
          "internalType": "uint256",
          "name": "_issueIndex",
          "type": "uint256"
        }
      ],
      "name": "newLotteryItem",
      "outputs": [
        {
          "internalType": "uint256",
          "name": "",
          "type": "uint256"
        }
      ],
      "stateMutability": "nonpayable",
      "type": "function"
    },
    {
      "inputs": [
        {
          "internalType": "uint256",
          "name": "tokenId",
          "type": "uint256"
        }
      ],
      "name": "getLotteryNumbers",
      "outputs": [
        {
          "internalType": "uint8[4]",
          "name": "",
          "type": "uint8[4]"
        }
      ],
      "stateMutability": "view",
      "type": "function",
      "constant": true
    },
    {
      "inputs": [
        {
          "internalType": "uint256",
          "name": "tokenId",
          "type": "uint256"
        }
      ],
      "name": "getLotteryAmount",
      "outputs": [
        {
          "internalType": "uint256",
          "name": "",
          "type": "uint256"
        }
      ],
      "stateMutability": "view",
      "type": "function",
      "constant": true
    },
    {
      "inputs": [
        {
          "internalType": "uint256",
          "name": "tokenId",
          "type": "uint256"
        }
      ],
      "name": "getLotteryIssueIndex",
      "outputs": [
        {
          "internalType": "uint256",
          "name": "",
          "type": "uint256"
        }
      ],
      "stateMutability": "view",
      "type": "function",
      "constant": true
    },
    {
      "inputs": [
        {
          "internalType": "uint256",
          "name": "tokenId",
          "type": "uint256"
        }
      ],
      "name": "claimReward",
      "outputs": [],
      "stateMutability": "nonpayable",
      "type": "function"
    },
    {
      "inputs": [
        {
          "internalType": "uint256[]",
          "name": "_tokenIds",
          "type": "uint256[]"
        }
      ],
      "name": "multiClaimReward",
      "outputs": [],
      "stateMutability": "nonpayable",
      "type": "function"
    },
    {
      "inputs": [
        {
          "internalType": "uint256",
          "name": "tokenId",
          "type": "uint256"
        }
      ],
      "name": "burn",
      "outputs": [],
      "stateMutability": "nonpayable",
      "type": "function"
    },
    {
      "inputs": [
        {
          "internalType": "uint256",
          "name": "tokenId",
          "type": "uint256"
        }
      ],
      "name": "getClaimStatus",
      "outputs": [
        {
          "internalType": "bool",
          "name": "",
          "type": "bool"
        }
      ],
      "stateMutability": "view",
      "type": "function",
      "constant": true
    }
  ],
  "bytecode": "0x60806040523480156200001157600080fd5b506040518060400160405280601381526020017f46616e7a204c6f7474657279205469636b6574000000000000000000000000008152506040518060400160405280600681526020017f46414e5a4c540000000000000000000000000000000000000000000000000000815250620000966301ffc9a760e01b620001c960201b60201c565b8160069080519060200190620000ae929190620002a9565b508060079080519060200190620000c7929190620002a9565b50620000e06380ac58cd60e01b620001c960201b60201c565b620000f8635b5e139f60e01b620001c960201b60201c565b6200011063780e9d6360e01b620001c960201b60201c565b5050600062000124620002a160201b60201c565b905080600a60006101000a81548173ffffffffffffffffffffffffffffffffffffffff021916908373ffffffffffffffffffffffffffffffffffffffff1602179055508073ffffffffffffffffffffffffffffffffffffffff16600073ffffffffffffffffffffffffffffffffffffffff167f8be0079c531659141344cd1fd0a4f28419497f9722a3daafe3b4186f6b6457e060405160405180910390a350620003c4565b63ffffffff60e01b817bffffffffffffffffffffffffffffffffffffffffffffffffffffffff1916141562000235576040517f08c379a00000000000000000000000000000000000000000000000000000000081526004016200022c9062000391565b60405180910390fd5b6001600080837bffffffffffffffffffffffffffffffffffffffffffffffffffffffff19167bffffffffffffffffffffffffffffffffffffffffffffffffffffffff1916815260200190815260200160002060006101000a81548160ff02191690831515021790555050565b600033905090565b828054600181600116156101000203166002900490600052602060002090601f016020900481019282601f10620002ec57805160ff19168380011785556200031d565b828001600101855582156200031d579182015b828111156200031c578251825591602001919060010190620002ff565b5b5090506200032c919062000330565b5090565b5b808211156200034b57600081600090555060010162000331565b5090565b60006200035e601c83620003b3565b91507f4552433136353a20696e76616c696420696e74657266616365206964000000006000830152602082019050919050565b60006020820190508181036000830152620003ac816200034f565b9050919050565b600082825260208201905092915050565b613f2680620003d46000396000f3fe608060405234801561001057600080fd5b50600436106101f05760003560e01c80636352211e1161010f578063a22cb465116100a2578063c87b56dd11610071578063c87b56dd14610615578063e985e9c514610645578063f2fde38b14610675578063f7a0c0ca14610691576101f0565b8063a22cb46514610591578063ae169a50146105ad578063b88d4fde146105c9578063c13f690b146105e5576101f0565b8063715018a6116100de578063715018a61461052f57806374310355146105395780638da5cb5b1461055557806395d89b4114610573576101f0565b80636352211e146104815780636575243f146104b15780636c0360eb146104e157806370a08231146104ff576101f0565b80632f745c591161018757806342966c681161015657806342966c68146103d55780634f6ccce7146103f15780635c362233146104215780635f8e26a714610451576101f0565b80632f745c591461032957806336dbd2f91461035957806337391c001461038957806342842e0e146103b9576101f0565b8063095ea7b3116101c3578063095ea7b3146102a357806318160ddd146102bf5780631bf1e00f146102dd57806323b872dd1461030d576101f0565b806301ffc9a7146101f557806306fdde0314610225578063081812fc1461024357806308c7662514610273575b600080fd5b61020f600480360381019061020a9190612f66565b6106c1565b60405161021c919061394b565b60405180910390f35b61022d610728565b60405161023a9190613966565b60405180910390f35b61025d60048036038101906102589190612fb8565b6107ca565b60405161026a91906138c9565b60405180910390f35b61028d60048036038101906102889190612fb8565b61084f565b60405161029a9190613be8565b60405180910390f35b6102bd60048036038101906102b89190612ee9565b610867565b005b6102c761097f565b6040516102d49190613be8565b60405180910390f35b6102f760048036038101906102f29190612fb8565b610990565b6040516103049190613be8565b60405180910390f35b61032760048036038101906103229190612d80565b6109ad565b005b610343600480360381019061033e9190612ee9565b610a0d565b6040516103509190613be8565b60405180910390f35b610373600480360381019061036e9190612fb8565b610a68565b604051610380919061394b565b60405180910390f35b6103a3600480360381019061039e9190612e4a565b610a92565b6040516103b09190613be8565b60405180910390f35b6103d360048036038101906103ce9190612d80565b610b91565b005b6103ef60048036038101906103ea9190612fb8565b610bb1565b005b61040b60048036038101906104069190612fb8565b610c39565b6040516104189190613be8565b60405180910390f35b61043b60048036038101906104369190612fb8565b610c5c565b604051610448919061394b565b60405180910390f35b61046b60048036038101906104669190612fb8565b610c7c565b6040516104789190613930565b60405180910390f35b61049b60048036038101906104969190612fb8565b610d00565b6040516104a891906138c9565b60405180910390f35b6104cb60048036038101906104c69190612fe1565b610d37565b6040516104d89190613c03565b60405180910390f35b6104e9610d6d565b6040516104f69190613966565b60405180910390f35b61051960048036038101906105149190612d1b565b610e0f565b6040516105269190613be8565b60405180910390f35b610537610ece565b005b610553600480360381019061054e9190612f25565b61100b565b005b61055d6110e3565b60405161056a91906138c9565b60405180910390f35b61057b61110d565b6040516105889190613966565b60405180910390f35b6105ab60048036038101906105a69190612ead565b6111af565b005b6105c760048036038101906105c29190612fb8565b611330565b005b6105e360048036038101906105de9190612dcf565b6113db565b005b6105ff60048036038101906105fa9190612fb8565b61143d565b60405161060c9190613be8565b60405180910390f35b61062f600480360381019061062a9190612fb8565b611455565b60405161063c9190613966565b60405180910390f35b61065f600480360381019061065a9190612d44565b6115d8565b60405161066c919061394b565b60405180910390f35b61068f600480360381019061068a9190612d1b565b61166c565b005b6106ab60048036038101906106a69190612fb8565b611818565b6040516106b89190613be8565b60405180910390f35b6000806000837bffffffffffffffffffffffffffffffffffffffffffffffffffffffff19167bffffffffffffffffffffffffffffffffffffffffffffffffffffffff1916815260200190815260200160002060009054906101000a900460ff169050919050565b606060068054600181600116156101000203166002900480601f0160208091040260200160405190810160405280929190818152602001828054600181600116156101000203166002900480156107c05780601f10610795576101008083540402835291602001916107c0565b820191906000526020600020905b8154815290600101906020018083116107a357829003601f168201915b5050505050905090565b60006107d582611835565b610814576040517f08c379a000000000000000000000000000000000000000000000000000000000815260040161080b90613b08565b60405180910390fd5b6004600083815260200190815260200160002060009054906101000a900473ffffffffffffffffffffffffffffffffffffffff169050919050565b600e6020528060005260406000206000915090505481565b600061087282610d00565b90508073ffffffffffffffffffffffffffffffffffffffff168373ffffffffffffffffffffffffffffffffffffffff1614156108e3576040517f08c379a00000000000000000000000000000000000000000000000000000000081526004016108da90613b88565b60405180910390fd5b8073ffffffffffffffffffffffffffffffffffffffff16610902611852565b73ffffffffffffffffffffffffffffffffffffffff16148061093157506109308161092b611852565b6115d8565b5b610970576040517f08c379a000000000000000000000000000000000000000000000000000000000815260040161096790613a88565b60405180910390fd5b61097a838361185a565b505050565b600061098b6002611913565b905090565b6000600e6000838152602001908152602001600020549050919050565b6109be6109b8611852565b82611928565b6109fd576040517f08c379a00000000000000000000000000000000000000000000000000000000081526004016109f490613ba8565b60405180910390fd5b610a08838383611a06565b505050565b6000610a6082600160008673ffffffffffffffffffffffffffffffffffffffff1673ffffffffffffffffffffffffffffffffffffffff168152602001908152602001600020611c1d90919063ffffffff16565b905092915050565b6000600f600083815260200190815260200160002060009054906101000a900460ff169050919050565b6000610a9c611852565b73ffffffffffffffffffffffffffffffffffffffff16610aba6110e3565b73ffffffffffffffffffffffffffffffffffffffff1614610b10576040517f08c379a0000000000000000000000000000000000000000000000000000000008152600401610b0790613b28565b60405180910390fd5b610b1a600b611c37565b6000610b26600b611c4d565b9050610b328682611c5b565b84600c6000838152602001908152602001600020906004610b54929190612a09565b5083600d60008381526020019081526020016000208190555082600e60008381526020019081526020016000208190555080915050949350505050565b610bac838383604051806020016040528060008152506113db565b505050565b610bb9611852565b73ffffffffffffffffffffffffffffffffffffffff16610bd76110e3565b73ffffffffffffffffffffffffffffffffffffffff1614610c2d576040517f08c379a0000000000000000000000000000000000000000000000000000000008152600401610c2490613b28565b60405180910390fd5b610c3681611de9565b50565b600080610c50836002611f2390919063ffffffff16565b50905080915050919050565b600f6020528060005260406000206000915054906101000a900460ff1681565b610c84612aa3565b600c6000838152602001908152602001600020600480602002604051908101604052809291908260048015610cf4576020028201916000905b82829054906101000a900460ff1660ff1681526020019060010190602082600001049283019260010382029150808411610cbd5790505b50505050509050919050565b6000610d3082604051806060016040528060298152602001613ec8602991396002611f4f9092919063ffffffff16565b9050919050565b600c6020528160005260406000208160048110610d5057fe5b60209182820401919006915091509054906101000a900460ff1681565b606060098054600181600116156101000203166002900480601f016020809104026020016040519081016040528092919081815260200182805460018160011615610100020316600290048015610e055780601f10610dda57610100808354040283529160200191610e05565b820191906000526020600020905b815481529060010190602001808311610de857829003601f168201915b5050505050905090565b60008073ffffffffffffffffffffffffffffffffffffffff168273ffffffffffffffffffffffffffffffffffffffff161415610e80576040517f08c379a0000000000000000000000000000000000000000000000000000000008152600401610e7790613aa8565b60405180910390fd5b610ec7600160008473ffffffffffffffffffffffffffffffffffffffff1673ffffffffffffffffffffffffffffffffffffffff168152602001908152602001600020611f6e565b9050919050565b610ed6611852565b73ffffffffffffffffffffffffffffffffffffffff16610ef46110e3565b73ffffffffffffffffffffffffffffffffffffffff1614610f4a576040517f08c379a0000000000000000000000000000000000000000000000000000000008152600401610f4190613b28565b60405180910390fd5b600073ffffffffffffffffffffffffffffffffffffffff16600a60009054906101000a900473ffffffffffffffffffffffffffffffffffffffff1673ffffffffffffffffffffffffffffffffffffffff167f8be0079c531659141344cd1fd0a4f28419497f9722a3daafe3b4186f6b6457e060405160405180910390a36000600a60006101000a81548173ffffffffffffffffffffffffffffffffffffffff021916908373ffffffffffffffffffffffffffffffffffffffff160217905550565b611013611852565b73ffffffffffffffffffffffffffffffffffffffff166110316110e3565b73ffffffffffffffffffffffffffffffffffffffff1614611087576040517f08c379a000000000000000000000000000000000000000000000000000000000815260040161107e90613b28565b60405180910390fd5b60005b81518110156110df576001600f60008484815181106110a557fe5b6020026020010151815260200190815260200160002060006101000a81548160ff021916908315150217905550808060010191505061108a565b5050565b6000600a60009054906101000a900473ffffffffffffffffffffffffffffffffffffffff16905090565b606060078054600181600116156101000203166002900480601f0160208091040260200160405190810160405280929190818152602001828054600181600116156101000203166002900480156111a55780601f1061117a576101008083540402835291602001916111a5565b820191906000526020600020905b81548152906001019060200180831161118857829003601f168201915b5050505050905090565b6111b7611852565b73ffffffffffffffffffffffffffffffffffffffff168273ffffffffffffffffffffffffffffffffffffffff161415611225576040517f08c379a000000000000000000000000000000000000000000000000000000000815260040161121c90613a28565b60405180910390fd5b8060056000611232611852565b73ffffffffffffffffffffffffffffffffffffffff1673ffffffffffffffffffffffffffffffffffffffff16815260200190815260200160002060008473ffffffffffffffffffffffffffffffffffffffff1673ffffffffffffffffffffffffffffffffffffffff16815260200190815260200160002060006101000a81548160ff0219169083151502179055508173ffffffffffffffffffffffffffffffffffffffff166112df611852565b73ffffffffffffffffffffffffffffffffffffffff167f17307eab39ab6107e8899845ad3d59bd9653f200f220920489ca2b5937696c3183604051611324919061394b565b60405180910390a35050565b611338611852565b73ffffffffffffffffffffffffffffffffffffffff166113566110e3565b73ffffffffffffffffffffffffffffffffffffffff16146113ac576040517f08c379a00000000000000000000000000000000000000000000000000000000081526004016113a390613b28565b60405180910390fd5b6001600f600083815260200190815260200160002060006101000a81548160ff02191690831515021790555050565b6113ec6113e6611852565b83611928565b61142b576040517f08c379a000000000000000000000000000000000000000000000000000000000815260040161142290613ba8565b60405180910390fd5b61143784848484611f83565b50505050565b600d6020528060005260406000206000915090505481565b606061146082611835565b61149f576040517f08c379a000000000000000000000000000000000000000000000000000000000815260040161149690613b68565b60405180910390fd5b6060600860008481526020019081526020016000208054600181600116156101000203166002900480601f0160208091040260200160405190810160405280929190818152602001828054600181600116156101000203166002900480156115485780601f1061151d57610100808354040283529160200191611548565b820191906000526020600020905b81548152906001019060200180831161152b57829003601f168201915b505050505090506060611559610d6d565b905060008151141561156f5781925050506115d3565b6000825111156115a457808260405160200161158c9291906138a5565b604051602081830303815290604052925050506115d3565b806115ae85611fdf565b6040516020016115bf9291906138a5565b604051602081830303815290604052925050505b919050565b6000600560008473ffffffffffffffffffffffffffffffffffffffff1673ffffffffffffffffffffffffffffffffffffffff16815260200190815260200160002060008373ffffffffffffffffffffffffffffffffffffffff1673ffffffffffffffffffffffffffffffffffffffff16815260200190815260200160002060009054906101000a900460ff16905092915050565b611674611852565b73ffffffffffffffffffffffffffffffffffffffff166116926110e3565b73ffffffffffffffffffffffffffffffffffffffff16146116e8576040517f08c379a00000000000000000000000000000000000000000000000000000000081526004016116df90613b28565b60405180910390fd5b600073ffffffffffffffffffffffffffffffffffffffff168173ffffffffffffffffffffffffffffffffffffffff161415611758576040517f08c379a000000000000000000000000000000000000000000000000000000000815260040161174f906139c8565b60405180910390fd5b8073ffffffffffffffffffffffffffffffffffffffff16600a60009054906101000a900473ffffffffffffffffffffffffffffffffffffffff1673ffffffffffffffffffffffffffffffffffffffff167f8be0079c531659141344cd1fd0a4f28419497f9722a3daafe3b4186f6b6457e060405160405180910390a380600a60006101000a81548173ffffffffffffffffffffffffffffffffffffffff021916908373ffffffffffffffffffffffffffffffffffffffff16021790555050565b6000600d6000838152602001908152602001600020549050919050565b600061184b82600261212690919063ffffffff16565b9050919050565b600033905090565b816004600083815260200190815260200160002060006101000a81548173ffffffffffffffffffffffffffffffffffffffff021916908373ffffffffffffffffffffffffffffffffffffffff160217905550808273ffffffffffffffffffffffffffffffffffffffff166118cd83610d00565b73ffffffffffffffffffffffffffffffffffffffff167f8c5be1e5ebec7d5bd14f71427d1e84f3dd0314c0f7b2291e5b200ac8c7c3b92560405160405180910390a45050565b600061192182600001612140565b9050919050565b600061193382611835565b611972576040517f08c379a000000000000000000000000000000000000000000000000000000000815260040161196990613a68565b60405180910390fd5b600061197d83610d00565b90508073ffffffffffffffffffffffffffffffffffffffff168473ffffffffffffffffffffffffffffffffffffffff1614806119ec57508373ffffffffffffffffffffffffffffffffffffffff166119d4846107ca565b73ffffffffffffffffffffffffffffffffffffffff16145b806119fd57506119fc81856115d8565b5b91505092915050565b8273ffffffffffffffffffffffffffffffffffffffff16611a2682610d00565b73ffffffffffffffffffffffffffffffffffffffff1614611a7c576040517f08c379a0000000000000000000000000000000000000000000000000000000008152600401611a7390613b48565b60405180910390fd5b600073ffffffffffffffffffffffffffffffffffffffff168273ffffffffffffffffffffffffffffffffffffffff161415611aec576040517f08c379a0000000000000000000000000000000000000000000000000000000008152600401611ae390613a08565b60405180910390fd5b611af7838383612151565b611b0260008261185a565b611b5381600160008673ffffffffffffffffffffffffffffffffffffffff1673ffffffffffffffffffffffffffffffffffffffff16815260200190815260200160002061215690919063ffffffff16565b50611ba581600160008573ffffffffffffffffffffffffffffffffffffffff1673ffffffffffffffffffffffffffffffffffffffff16815260200190815260200160002061217090919063ffffffff16565b50611bbc8183600261218a9092919063ffffffff16565b50808273ffffffffffffffffffffffffffffffffffffffff168473ffffffffffffffffffffffffffffffffffffffff167fddf252ad1be2c89b69c2b068fc378daa952ba7f163c4a11628f55a4df523b3ef60405160405180910390a4505050565b6000611c2c83600001836121bf565b60001c905092915050565b6001816000016000828254019250508190555050565b600081600001549050919050565b600073ffffffffffffffffffffffffffffffffffffffff168273ffffffffffffffffffffffffffffffffffffffff161415611ccb576040517f08c379a0000000000000000000000000000000000000000000000000000000008152600401611cc290613ae8565b60405180910390fd5b611cd481611835565b15611d14576040517f08c379a0000000000000000000000000000000000000000000000000000000008152600401611d0b906139e8565b60405180910390fd5b611d2060008383612151565b611d7181600160008573ffffffffffffffffffffffffffffffffffffffff1673ffffffffffffffffffffffffffffffffffffffff16815260200190815260200160002061217090919063ffffffff16565b50611d888183600261218a9092919063ffffffff16565b50808273ffffffffffffffffffffffffffffffffffffffff16600073ffffffffffffffffffffffffffffffffffffffff167fddf252ad1be2c89b69c2b068fc378daa952ba7f163c4a11628f55a4df523b3ef60405160405180910390a45050565b6000611df482610d00565b9050611e0281600084612151565b611e0d60008361185a565b60006008600084815260200190815260200160002080546001816001161561010002031660029004905014611e5c57600860008381526020019081526020016000206000611e5b9190612ac5565b5b611ead82600160008473ffffffffffffffffffffffffffffffffffffffff1673ffffffffffffffffffffffffffffffffffffffff16815260200190815260200160002061215690919063ffffffff16565b50611ec282600261222c90919063ffffffff16565b5081600073ffffffffffffffffffffffffffffffffffffffff168273ffffffffffffffffffffffffffffffffffffffff167fddf252ad1be2c89b69c2b068fc378daa952ba7f163c4a11628f55a4df523b3ef60405160405180910390a45050565b600080600080611f368660000186612246565b915091508160001c8160001c9350935050509250929050565b6000611f62846000018460001b846122c9565b60001c90509392505050565b6000611f7c8260000161235a565b9050919050565b611f8e848484611a06565b611f9a8484848461236b565b611fd9576040517f08c379a0000000000000000000000000000000000000000000000000000000008152600401611fd0906139a8565b60405180910390fd5b50505050565b60606000821415612027576040518060400160405280600181526020017f30000000000000000000000000000000000000000000000000000000000000008152509050612121565b600082905060005b60008214612051578080600101915050600a828161204957fe5b04915061202f565b60608167ffffffffffffffff8111801561206a57600080fd5b506040519080825280601f01601f19166020018201604052801561209d5781602001600182028036833780820191505090505b50905060006001830390508593505b6000841461211957600a84816120be57fe5b0660300160f81b828280600190039350815181106120d857fe5b60200101907effffffffffffffffffffffffffffffffffffffffffffffffffffffffffffff1916908160001a905350600a848161211157fe5b0493506120ac565b819450505050505b919050565b6000612138836000018360001b6124cf565b905092915050565b600081600001805490509050919050565b505050565b6000612168836000018360001b6124f2565b905092915050565b6000612182836000018360001b6125da565b905092915050565b60006121b6846000018460001b8473ffffffffffffffffffffffffffffffffffffffff1660001b61264a565b90509392505050565b60008183600001805490501161220a576040517f08c379a000000000000000000000000000000000000000000000000000000000815260040161220190613988565b60405180910390fd5b82600001828154811061221957fe5b9060005260206000200154905092915050565b600061223e836000018360001b612726565b905092915050565b60008082846000018054905011612292576040517f08c379a000000000000000000000000000000000000000000000000000000000815260040161228990613ac8565b60405180910390fd5b60008460000184815481106122a357fe5b906000526020600020906002020190508060000154816001015492509250509250929050565b6000808460010160008581526020019081526020016000205490506000811415839061232b576040517f08c379a00000000000000000000000000000000000000000000000000000000081526004016123229190613966565b60405180910390fd5b5084600001600182038154811061233e57fe5b9060005260206000209060020201600101549150509392505050565b600081600001805490509050919050565b600061238c8473ffffffffffffffffffffffffffffffffffffffff1661283f565b61239957600190506124c7565b606061246063150b7a0260e01b6123ae611852565b8887876040516024016123c494939291906138e4565b604051602081830303815290604052907bffffffffffffffffffffffffffffffffffffffffffffffffffffffff19166020820180517bffffffffffffffffffffffffffffffffffffffffffffffffffffffff8381831617835250505050604051806060016040528060328152602001613e96603291398773ffffffffffffffffffffffffffffffffffffffff166128529092919063ffffffff16565b90506000818060200190518101906124789190612f8f565b905063150b7a0260e01b7bffffffffffffffffffffffffffffffffffffffffffffffffffffffff1916817bffffffffffffffffffffffffffffffffffffffffffffffffffffffff191614925050505b949350505050565b600080836001016000848152602001908152602001600020541415905092915050565b600080836001016000848152602001908152602001600020549050600081146125ce576000600182039050600060018660000180549050039050600086600001828154811061253d57fe5b906000526020600020015490508087600001848154811061255a57fe5b906000526020600020018190555060018301876001016000838152602001908152602001600020819055508660000180548061259257fe5b600190038181906000526020600020016000905590558660010160008781526020019081526020016000206000905560019450505050506125d4565b60009150505b92915050565b60006125e6838361286a565b61263f578260000182908060018154018082558091505060019003906000526020600020016000909190919091505582600001805490508360010160008481526020019081526020016000208190555060019050612644565b600090505b92915050565b60008084600101600085815260200190815260200160002054905060008114156126f15784600001604051806040016040528086815260200185815250908060018154018082558091505060019003906000526020600020906002020160009091909190915060008201518160000155602082015181600101555050846000018054905085600101600086815260200190815260200160002081905550600191505061271f565b8285600001600183038154811061270457fe5b90600052602060002090600202016001018190555060009150505b9392505050565b60008083600101600084815260200190815260200160002054905060008114612833576000600182039050600060018660000180549050039050600086600001828154811061277157fe5b906000526020600020906002020190508087600001848154811061279157fe5b90600052602060002090600202016000820154816000015560018201548160010155905050600183018760010160008360000154815260200190815260200160002081905550866000018054806127e457fe5b6001900381819060005260206000209060020201600080820160009055600182016000905550509055866001016000878152602001908152602001600020600090556001945050505050612839565b60009150505b92915050565b600080823b905060008111915050919050565b6060612861848460008561288d565b90509392505050565b600080836001016000848152602001908152602001600020541415905092915050565b6060824710156128d2576040517f08c379a00000000000000000000000000000000000000000000000000000000081526004016128c990613a48565b60405180910390fd5b6128db8561283f565b61291a576040517f08c379a000000000000000000000000000000000000000000000000000000000815260040161291190613bc8565b60405180910390fd5b600060608673ffffffffffffffffffffffffffffffffffffffff168587604051612944919061388e565b60006040518083038185875af1925050503d8060008114612981576040519150601f19603f3d011682016040523d82523d6000602084013e612986565b606091505b50915091506129968282866129a2565b92505050949350505050565b606083156129b257829050612a02565b6000835111156129c55782518084602001fd5b816040517f08c379a00000000000000000000000000000000000000000000000000000000081526004016129f99190613966565b60405180910390fd5b9392505050565b826004601f01602090048101928215612a925791602002820160005b83821115612a6357835183826101000a81548160ff021916908360ff1602179055509260200192600101602081600001049283019260010302612a25565b8015612a905782816101000a81549060ff0219169055600101602081600001049283019260010302612a63565b505b509050612a9f9190612b0d565b5090565b6040518060800160405280600490602082028036833780820191505090505090565b50805460018160011615610100020316600290046000825580601f10612aeb5750612b0a565b601f016020900490600052602060002090810190612b099190612b35565b5b50565b5b80821115612b3157600081816101000a81549060ff021916905550600101612b0e565b5090565b5b80821115612b4e576000816000905550600101612b36565b5090565b600081359050612b6181613e22565b92915050565b600082601f830112612b7857600080fd5b8135612b8b612b8682613c4b565b613c1e565b91508181835260208401935060208101905083856020840282011115612bb057600080fd5b60005b83811015612be05781612bc68882612cf1565b845260208401935060208301925050600181019050612bb3565b5050505092915050565b600082601f830112612bfb57600080fd5b6004612c0e612c0982613c73565b613c1e565b91508183856020840282011115612c2457600080fd5b60005b83811015612c545781612c3a8882612d06565b845260208401935060208301925050600181019050612c27565b5050505092915050565b600081359050612c6d81613e39565b92915050565b600081359050612c8281613e50565b92915050565b600081519050612c9781613e50565b92915050565b600082601f830112612cae57600080fd5b8135612cc1612cbc82613c95565b613c1e565b91508082526020830160208301858383011115612cdd57600080fd5b612ce8838284613dcf565b50505092915050565b600081359050612d0081613e67565b92915050565b600081359050612d1581613e7e565b92915050565b600060208284031215612d2d57600080fd5b6000612d3b84828501612b52565b91505092915050565b60008060408385031215612d5757600080fd5b6000612d6585828601612b52565b9250506020612d7685828601612b52565b9150509250929050565b600080600060608486031215612d9557600080fd5b6000612da386828701612b52565b9350506020612db486828701612b52565b9250506040612dc586828701612cf1565b9150509250925092565b60008060008060808587031215612de557600080fd5b6000612df387828801612b52565b9450506020612e0487828801612b52565b9350506040612e1587828801612cf1565b925050606085013567ffffffffffffffff811115612e3257600080fd5b612e3e87828801612c9d565b91505092959194509250565b60008060008060e08587031215612e6057600080fd5b6000612e6e87828801612b52565b9450506020612e7f87828801612bea565b93505060a0612e9087828801612cf1565b92505060c0612ea187828801612cf1565b91505092959194509250565b60008060408385031215612ec057600080fd5b6000612ece85828601612b52565b9250506020612edf85828601612c5e565b9150509250929050565b60008060408385031215612efc57600080fd5b6000612f0a85828601612b52565b9250506020612f1b85828601612cf1565b9150509250929050565b600060208284031215612f3757600080fd5b600082013567ffffffffffffffff811115612f5157600080fd5b612f5d84828501612b67565b91505092915050565b600060208284031215612f7857600080fd5b6000612f8684828501612c73565b91505092915050565b600060208284031215612fa157600080fd5b6000612faf84828501612c88565b91505092915050565b600060208284031215612fca57600080fd5b6000612fd884828501612cf1565b91505092915050565b60008060408385031215612ff457600080fd5b600061300285828601612cf1565b925050602061301385828601612cf1565b9150509250929050565b60006130298383613870565b60208301905092915050565b61303e81613d4e565b82525050565b61304d81613d3c565b82525050565b61305c81613ccb565b6130668184613cf9565b925061307182613cc1565b8060005b838110156130a2578151613089878261301d565b965061309483613cec565b925050600181019050613075565b505050505050565b6130b381613d60565b82525050565b60006130c482613cd6565b6130ce8185613d04565b93506130de818560208601613dde565b6130e781613e11565b840191505092915050565b60006130fd82613cd6565b6131078185613d15565b9350613117818560208601613dde565b80840191505092915050565b600061312e82613ce1565b6131388185613d20565b9350613148818560208601613dde565b61315181613e11565b840191505092915050565b600061316782613ce1565b6131718185613d31565b9350613181818560208601613dde565b80840191505092915050565b600061319a602283613d20565b91507f456e756d657261626c655365743a20696e646578206f7574206f6620626f756e60008301527f64730000000000000000000000000000000000000000000000000000000000006020830152604082019050919050565b6000613200603283613d20565b91507f4552433732313a207472616e7366657220746f206e6f6e20455243373231526560008301527f63656976657220696d706c656d656e74657200000000000000000000000000006020830152604082019050919050565b6000613266602683613d20565b91507f4f776e61626c653a206e6577206f776e657220697320746865207a65726f206160008301527f64647265737300000000000000000000000000000000000000000000000000006020830152604082019050919050565b60006132cc601c83613d20565b91507f4552433732313a20746f6b656e20616c7265616479206d696e746564000000006000830152602082019050919050565b600061330c602483613d20565b91507f4552433732313a207472616e7366657220746f20746865207a65726f2061646460008301527f72657373000000000000000000000000000000000000000000000000000000006020830152604082019050919050565b6000613372601983613d20565b91507f4552433732313a20617070726f766520746f2063616c6c6572000000000000006000830152602082019050919050565b60006133b2602683613d20565b91507f416464726573733a20696e73756666696369656e742062616c616e636520666f60008301527f722063616c6c00000000000000000000000000000000000000000000000000006020830152604082019050919050565b6000613418602c83613d20565b91507f4552433732313a206f70657261746f7220717565727920666f72206e6f6e657860008301527f697374656e7420746f6b656e00000000000000000000000000000000000000006020830152604082019050919050565b600061347e603883613d20565b91507f4552433732313a20617070726f76652063616c6c6572206973206e6f74206f7760008301527f6e6572206e6f7220617070726f76656420666f7220616c6c00000000000000006020830152604082019050919050565b60006134e4602a83613d20565b91507f4552433732313a2062616c616e636520717565727920666f7220746865207a6560008301527f726f2061646472657373000000000000000000000000000000000000000000006020830152604082019050919050565b600061354a602283613d20565b91507f456e756d657261626c654d61703a20696e646578206f7574206f6620626f756e60008301527f64730000000000000000000000000000000000000000000000000000000000006020830152604082019050919050565b60006135b0602083613d20565b91507f4552433732313a206d696e7420746f20746865207a65726f20616464726573736000830152602082019050919050565b60006135f0602c83613d20565b91507f4552433732313a20617070726f76656420717565727920666f72206e6f6e657860008301527f697374656e7420746f6b656e00000000000000000000000000000000000000006020830152604082019050919050565b6000613656602083613d20565b91507f4f776e61626c653a2063616c6c6572206973206e6f7420746865206f776e65726000830152602082019050919050565b6000613696602983613d20565b91507f4552433732313a207472616e73666572206f6620746f6b656e2074686174206960008301527f73206e6f74206f776e00000000000000000000000000000000000000000000006020830152604082019050919050565b60006136fc602f83613d20565b91507f4552433732314d657461646174613a2055524920717565727920666f72206e6f60008301527f6e6578697374656e7420746f6b656e00000000000000000000000000000000006020830152604082019050919050565b6000613762602183613d20565b91507f4552433732313a20617070726f76616c20746f2063757272656e74206f776e6560008301527f72000000000000000000000000000000000000000000000000000000000000006020830152604082019050919050565b60006137c8603183613d20565b91507f4552433732313a207472616e736665722063616c6c6572206973206e6f74206f60008301527f776e6572206e6f7220617070726f7665640000000000000000000000000000006020830152604082019050919050565b600061382e601d83613d20565b91507f416464726573733a2063616c6c20746f206e6f6e2d636f6e74726163740000006000830152602082019050919050565b61386a81613db8565b82525050565b61387981613dc2565b82525050565b61388881613dc2565b82525050565b600061389a82846130f2565b915081905092915050565b60006138b1828561315c565b91506138bd828461315c565b91508190509392505050565b60006020820190506138de6000830184613044565b92915050565b60006080820190506138f96000830187613035565b6139066020830186613044565b6139136040830185613861565b818103606083015261392581846130b9565b905095945050505050565b60006080820190506139456000830184613053565b92915050565b600060208201905061396060008301846130aa565b92915050565b600060208201905081810360008301526139808184613123565b905092915050565b600060208201905081810360008301526139a18161318d565b9050919050565b600060208201905081810360008301526139c1816131f3565b9050919050565b600060208201905081810360008301526139e181613259565b9050919050565b60006020820190508181036000830152613a01816132bf565b9050919050565b60006020820190508181036000830152613a21816132ff565b9050919050565b60006020820190508181036000830152613a4181613365565b9050919050565b60006020820190508181036000830152613a61816133a5565b9050919050565b60006020820190508181036000830152613a818161340b565b9050919050565b60006020820190508181036000830152613aa181613471565b9050919050565b60006020820190508181036000830152613ac1816134d7565b9050919050565b60006020820190508181036000830152613ae18161353d565b9050919050565b60006020820190508181036000830152613b01816135a3565b9050919050565b60006020820190508181036000830152613b21816135e3565b9050919050565b60006020820190508181036000830152613b4181613649565b9050919050565b60006020820190508181036000830152613b6181613689565b9050919050565b60006020820190508181036000830152613b81816136ef565b9050919050565b60006020820190508181036000830152613ba181613755565b9050919050565b60006020820190508181036000830152613bc1816137bb565b9050919050565b60006020820190508181036000830152613be181613821565b9050919050565b6000602082019050613bfd6000830184613861565b92915050565b6000602082019050613c18600083018461387f565b92915050565b6000604051905081810181811067ffffffffffffffff82111715613c4157600080fd5b8060405250919050565b600067ffffffffffffffff821115613c6257600080fd5b602082029050602081019050919050565b600067ffffffffffffffff821115613c8a57600080fd5b602082029050919050565b600067ffffffffffffffff821115613cac57600080fd5b601f19601f8301169050602081019050919050565b6000819050919050565b600060049050919050565b600081519050919050565b600081519050919050565b6000602082019050919050565b600081905092915050565b600082825260208201905092915050565b600081905092915050565b600082825260208201905092915050565b600081905092915050565b6000613d4782613d98565b9050919050565b6000613d5982613d98565b9050919050565b60008115159050919050565b60007fffffffff0000000000000000000000000000000000000000000000000000000082169050919050565b600073ffffffffffffffffffffffffffffffffffffffff82169050919050565b6000819050919050565b600060ff82169050919050565b82818337600083830152505050565b60005b83811015613dfc578082015181840152602081019050613de1565b83811115613e0b576000848401525b50505050565b6000601f19601f8301169050919050565b613e2b81613d3c565b8114613e3657600080fd5b50565b613e4281613d60565b8114613e4d57600080fd5b50565b613e5981613d6c565b8114613e6457600080fd5b50565b613e7081613db8565b8114613e7b57600080fd5b50565b613e8781613dc2565b8114613e9257600080fd5b5056fe4552433732313a207472616e7366657220746f206e6f6e20455243373231526563656976657220696d706c656d656e7465724552433732313a206f776e657220717565727920666f72206e6f6e6578697374656e7420746f6b656ea26469706673582212208df6dddc8b43f318ec27e912571db23fc60ef95778b4857f0eb40de3192e585864736f6c634300060c0033",
  "immutableReferences": {},
  "source": "pragma solidity >= 0.6.0;\npragma experimental ABIEncoderV2;\n\nimport \"@openzeppelin/contracts/token/ERC721/ERC721.sol\";\nimport \"@openzeppelin/contracts/utils/Counters.sol\";\nimport \"@openzeppelin/contracts/access/Ownable.sol\";\n\ncontract LotteryNFT is ERC721, Ownable {\n    using Counters for Counters.Counter;\n    Counters.Counter private _tokenIds;\n\n    mapping (uint256 => uint8[4]) public lotteryInfo;\n    mapping (uint256 => uint256) public lotteryAmount;\n    mapping (uint256 => uint256) public issueIndex;\n    mapping (uint256 => bool) public claimInfo;\n\n    constructor() public ERC721(\"Fanz Lottery Ticket\", \"FANZLT\") {}\n\n    function newLotteryItem(address player, uint8[4] memory _lotteryNumbers, uint256 _amount, uint256 _issueIndex)\n        public onlyOwner\n        returns (uint256)\n    {\n        _tokenIds.increment();\n\n        uint256 newItemId = _tokenIds.current();\n        _mint(player, newItemId);\n        lotteryInfo[newItemId] = _lotteryNumbers;\n        lotteryAmount[newItemId] = _amount;\n        issueIndex[newItemId] = _issueIndex;\n        // claimInfo[newItemId] = false; default is false here\n        // _setTokenURI(newItemId, tokenURI);\n\n        return newItemId;\n    }\n\n    function getLotteryNumbers(uint256 tokenId) external view returns (uint8[4] memory) {\n        return lotteryInfo[tokenId];\n    }\n    function getLotteryAmount(uint256 tokenId) external view returns (uint256) {\n        return lotteryAmount[tokenId];\n    }\n    function getLotteryIssueIndex(uint256 tokenId) external view returns (uint256) {\n        return issueIndex[tokenId];\n    }\n    function claimReward(uint256 tokenId) external onlyOwner {\n        claimInfo[tokenId] = true;\n    }\n    function multiClaimReward(uint256[] memory _tokenIds) external onlyOwner {\n        for (uint i = 0; i < _tokenIds.length; i++) {\n            claimInfo[_tokenIds[i]] = true;\n        }\n    }\n    function burn(uint256 tokenId) external onlyOwner {\n        _burn(tokenId);\n    }\n    function getClaimStatus(uint256 tokenId) external view returns (bool) {\n        return claimInfo[tokenId];\n    }\n}\n",
  "sourcePath": "/Users/canaydin/Development/GitHub/fanz-contracts/contracts/lottery/LotteryNFT.sol",
  "compiler": {
    "name": "solc",
    "version": "0.6.12+commit.27d51765.Emscripten.clang"
  },
  "schemaVersion": "3.4.0",
  "updatedAt": "2021-05-01T21:12:44.265Z",
  "networkType": "ethereum",
  "devdoc": {
    "kind": "dev",
    "methods": {
      "approve(address,uint256)": {
        "details": "See {IERC721-approve}."
      },
      "balanceOf(address)": {
        "details": "See {IERC721-balanceOf}."
      },
      "baseURI()": {
        "details": "Returns the base URI set via {_setBaseURI}. This will be automatically added as a prefix in {tokenURI} to each token's URI, or to the token ID if no specific URI is set for that token ID."
      },
      "getApproved(uint256)": {
        "details": "See {IERC721-getApproved}."
      },
      "isApprovedForAll(address,address)": {
        "details": "See {IERC721-isApprovedForAll}."
      },
      "name()": {
        "details": "See {IERC721Metadata-name}."
      },
      "owner()": {
        "details": "Returns the address of the current owner."
      },
      "ownerOf(uint256)": {
        "details": "See {IERC721-ownerOf}."
      },
      "renounceOwnership()": {
        "details": "Leaves the contract without owner. It will not be possible to call `onlyOwner` functions anymore. Can only be called by the current owner. NOTE: Renouncing ownership will leave the contract without an owner, thereby removing any functionality that is only available to the owner."
      },
      "safeTransferFrom(address,address,uint256)": {
        "details": "See {IERC721-safeTransferFrom}."
      },
      "safeTransferFrom(address,address,uint256,bytes)": {
        "details": "See {IERC721-safeTransferFrom}."
      },
      "setApprovalForAll(address,bool)": {
        "details": "See {IERC721-setApprovalForAll}."
      },
      "supportsInterface(bytes4)": {
        "details": "See {IERC165-supportsInterface}. Time complexity O(1), guaranteed to always use less than 30 000 gas."
      },
      "symbol()": {
        "details": "See {IERC721Metadata-symbol}."
      },
      "tokenByIndex(uint256)": {
        "details": "See {IERC721Enumerable-tokenByIndex}."
      },
      "tokenOfOwnerByIndex(address,uint256)": {
        "details": "See {IERC721Enumerable-tokenOfOwnerByIndex}."
      },
      "tokenURI(uint256)": {
        "details": "See {IERC721Metadata-tokenURI}."
      },
      "totalSupply()": {
        "details": "See {IERC721Enumerable-totalSupply}."
      },
      "transferFrom(address,address,uint256)": {
        "details": "See {IERC721-transferFrom}."
      },
      "transferOwnership(address)": {
        "details": "Transfers ownership of the contract to a new account (`newOwner`). Can only be called by the current owner."
      }
    },
    "version": 1
  },
  "userdoc": {
    "kind": "user",
    "methods": {},
    "version": 1
  }
}