{
  "contractName": "ReferralReward",
  "abi": [
    {
      "inputs": [
        {
          "internalType": "contract IBEP20",
          "name": "token",
          "type": "address"
        },
        {
          "internalType": "uint256",
          "name": "defaultAmount",
          "type": "uint256"
        },
        {
          "internalType": "address",
          "name": "defaultWallet",
          "type": "address"
        }
      ],
      "stateMutability": "nonpayable",
      "type": "constructor"
    },
    {
      "anonymous": false,
      "inputs": [
        {
          "indexed": true,
          "internalType": "address",
          "name": "previousOwner",
          "type": "address"
        },
        {
          "indexed": true,
          "internalType": "address",
          "name": "newOwner",
          "type": "address"
        }
      ],
      "name": "OwnershipTransferred",
      "type": "event"
    },
    {
      "inputs": [],
      "name": "owner",
      "outputs": [
        {
          "internalType": "address",
          "name": "",
          "type": "address"
        }
      ],
      "stateMutability": "view",
      "type": "function",
      "constant": true
    },
    {
      "inputs": [],
      "name": "renounceOwnership",
      "outputs": [],
      "stateMutability": "nonpayable",
      "type": "function"
    },
    {
      "inputs": [
        {
          "internalType": "address",
          "name": "newOwner",
          "type": "address"
        }
      ],
      "name": "transferOwnership",
      "outputs": [],
      "stateMutability": "nonpayable",
      "type": "function"
    },
    {
      "inputs": [
        {
          "internalType": "address",
          "name": "account",
          "type": "address"
        }
      ],
      "name": "balanceOf",
      "outputs": [
        {
          "internalType": "uint256",
          "name": "",
          "type": "uint256"
        }
      ],
      "stateMutability": "view",
      "type": "function",
      "constant": true
    },
    {
      "inputs": [
        {
          "internalType": "int8",
          "name": "typeId",
          "type": "int8"
        },
        {
          "internalType": "address",
          "name": "wallet",
          "type": "address"
        },
        {
          "internalType": "uint256",
          "name": "amount",
          "type": "uint256"
        }
      ],
      "name": "setUserType",
      "outputs": [],
      "stateMutability": "nonpayable",
      "type": "function"
    },
    {
      "inputs": [
        {
          "internalType": "address",
          "name": "userAddress",
          "type": "address"
        },
        {
          "internalType": "int8",
          "name": "typeId",
          "type": "int8"
        }
      ],
      "name": "setUser",
      "outputs": [],
      "stateMutability": "nonpayable",
      "type": "function"
    },
    {
      "inputs": [
        {
          "internalType": "address",
          "name": "userAddress",
          "type": "address"
        }
      ],
      "name": "getUser",
      "outputs": [
        {
          "internalType": "int8",
          "name": "userType",
          "type": "int8"
        },
        {
          "internalType": "uint256",
          "name": "amount",
          "type": "uint256"
        },
        {
          "internalType": "address",
          "name": "wallet",
          "type": "address"
        }
      ],
      "stateMutability": "view",
      "type": "function",
      "constant": true
    },
    {
      "inputs": [],
      "name": "wallet",
      "outputs": [
        {
          "internalType": "address",
          "name": "",
          "type": "address"
        }
      ],
      "stateMutability": "view",
      "type": "function",
      "constant": true
    },
    {
      "inputs": [],
      "name": "amount",
      "outputs": [
        {
          "internalType": "uint256",
          "name": "",
          "type": "uint256"
        }
      ],
      "stateMutability": "view",
      "type": "function",
      "constant": true
    },
    {
      "inputs": [
        {
          "internalType": "address",
          "name": "wallet",
          "type": "address"
        }
      ],
      "name": "setWallet",
      "outputs": [],
      "stateMutability": "nonpayable",
      "type": "function"
    },
    {
      "inputs": [
        {
          "internalType": "address",
          "name": "wallet",
          "type": "address"
        },
        {
          "internalType": "uint256",
          "name": "amount",
          "type": "uint256"
        }
      ],
      "name": "setAmount",
      "outputs": [],
      "stateMutability": "nonpayable",
      "type": "function"
    },
    {
      "inputs": [],
      "name": "paused",
      "outputs": [
        {
          "internalType": "bool",
          "name": "",
          "type": "bool"
        }
      ],
      "stateMutability": "view",
      "type": "function",
      "constant": true
    },
    {
      "inputs": [],
      "name": "pause",
      "outputs": [],
      "stateMutability": "nonpayable",
      "type": "function"
    },
    {
      "inputs": [],
      "name": "unpause",
      "outputs": [],
      "stateMutability": "nonpayable",
      "type": "function"
    },
    {
      "inputs": [
        {
          "internalType": "address",
          "name": "sender",
          "type": "address"
        },
        {
          "internalType": "address",
          "name": "recipient",
          "type": "address"
        }
      ],
      "name": "transfer",
      "outputs": [],
      "stateMutability": "nonpayable",
      "type": "function"
    }
  ],
  "bytecode": "0x608060405234801561001057600080fd5b506040516115433803806115438339818101604052606081101561003357600080fd5b5080516020820151604090920151909190600061004e61019e565b600080546001600160a01b0319166001600160a01b0383169081178255604051929350917f8be0079c531659141344cd1fd0a4f28419497f9722a3daafe3b4186f6b6457e0908290a3506001600160a01b0383166100dd5760405162461bcd60e51b81526004018080602001828103825260298152602001806114e96029913960400191505060405180910390fd5b6001600160a01b0381166101225760405162461bcd60e51b81526004018080602001828103825260318152602001806115126031913960400191505060405180910390fd5b8161015e5760405162461bcd60e51b81526004018080602001828103825260258152602001806114c46025913960400191505060405180910390fd5b60018054600293909355600380546001600160a01b03199081166001600160a01b039485161790915590921692169190911760ff60a01b191690556101a2565b3390565b611313806101b16000396000f3fe608060405234801561001057600080fd5b50600436106100f55760003560e01c80638da5cb5b11610097578063d9b2033e11610066578063d9b2033e14610248578063deaa59df1461027d578063e2b087fa146102a3578063f2fde38b146102d2576100f5565b80638da5cb5b146101de578063aa8c217c146101e6578063ba45b0b8146101ee578063d2fafb191461021c576100f5565b80636f77926b116100d35780636f77926b1461014457806370a0823114610196578063715018a6146101ce5780638456cb59146101d6576100f5565b80633f4ba83a146100fa578063521eb273146101045780635c975abb14610128575b600080fd5b6101026102f8565b005b61010c610396565b604080516001600160a01b039092168252519081900360200190f35b6101306103a5565b604080519115158252519081900360200190f35b61016a6004803603602081101561015a57600080fd5b50356001600160a01b03166103c6565b6040805160009490940b845260208401929092526001600160a01b031682820152519081900360600190f35b6101bc600480360360208110156101ac57600080fd5b50356001600160a01b0316610469565b60408051918252519081900360200190f35b610102610484565b61010261055a565b61010c61060f565b6101bc61061e565b6101026004803603604081101561020457600080fd5b506001600160a01b0381358116916020013516610624565b6101026004803603604081101561023257600080fd5b506001600160a01b038135169060200135610890565b6101026004803603606081101561025e57600080fd5b50803560000b906001600160a01b03602082013516906040013561090a565b6101026004803603602081101561029357600080fd5b50356001600160a01b0316610a14565b610102600480360360408110156102b957600080fd5b506001600160a01b03813516906020013560000b610b07565b610102600480360360208110156102e857600080fd5b50356001600160a01b0316610c0d565b610300610d39565b6001600160a01b031661031161060f565b6001600160a01b03161461036c576040805162461bcd60e51b815260206004820181905260248201527f4f776e61626c653a2063616c6c6572206973206e6f7420746865206f776e6572604482015290519081900360640190fd5b600180547fffffffffffffffffffffff00ffffffffffffffffffffffffffffffffffffffff169055565b6003546001600160a01b031690565b60015474010000000000000000000000000000000000000000900460ff1690565b6001600160a01b03811660009081526007602052604081205481908190810b80820b610409575050600254600354600093509091506001600160a01b0316610462565b61041161119d565b506001600160a01b03858116600090815260076020908152604080832054830b830b830b83526006825291829020825180840190935280548084526001909101549093169101819052919450925090505b9193909250565b6001600160a01b031660009081526005602052604090205490565b61048c610d39565b6001600160a01b031661049d61060f565b6001600160a01b0316146104f8576040805162461bcd60e51b815260206004820181905260248201527f4f776e61626c653a2063616c6c6572206973206e6f7420746865206f776e6572604482015290519081900360640190fd5b600080546040516001600160a01b03909116907f8be0079c531659141344cd1fd0a4f28419497f9722a3daafe3b4186f6b6457e0908390a3600080547fffffffffffffffffffffffff0000000000000000000000000000000000000000169055565b610562610d39565b6001600160a01b031661057361060f565b6001600160a01b0316146105ce576040805162461bcd60e51b815260206004820181905260248201527f4f776e61626c653a2063616c6c6572206973206e6f7420746865206f776e6572604482015290519081900360640190fd5b600180547fffffffffffffffffffffff00ffffffffffffffffffffffffffffffffffffffff1674010000000000000000000000000000000000000000179055565b6000546001600160a01b031690565b60025490565b61062c610d39565b6001600160a01b031661063d61060f565b6001600160a01b031614610698576040805162461bcd60e51b815260206004820181905260248201527f4f776e61626c653a2063616c6c6572206973206e6f7420746865206f776e6572604482015290519081900360640190fd5b6001600160a01b0382166106dd5760405162461bcd60e51b815260040180806020018281038252602e815260200180611205602e913960400191505060405180910390fd5b60015474010000000000000000000000000000000000000000900460ff168061071f57506001600160a01b038281166000908152600460205260409020541615155b156107295761088c565b6001600160a01b03811661076e5760405162461bcd60e51b815260040180806020018281038252602c8152602001806112b2602c913960400191505060405180910390fd5b6002546003546001600160a01b031661078561119d565b506001600160a01b03838116600090815260076020908152604080832054830b830b830b83526006825291829020825180840190935280548084526001909101549093169082015290156107e0578051602082015190935091505b6001546107f8906001600160a01b0316833086610d3d565b60015461080f906001600160a01b03168585610dcb565b6001600160a01b0384166000908152600560205260409020546108329084610e50565b6001600160a01b038086166000818152600560209081526040808320959095559289168152600490925291902080547fffffffffffffffffffffffff00000000000000000000000000000000000000001690911790555050505b5050565b610898610d39565b6001600160a01b03166108a961060f565b6001600160a01b031614610904576040805162461bcd60e51b815260206004820181905260248201527f4f776e61626c653a2063616c6c6572206973206e6f7420746865206f776e6572604482015290519081900360640190fd5b60025550565b610912610d39565b6001600160a01b031661092361060f565b6001600160a01b03161461097e576040805162461bcd60e51b815260206004820181905260248201527f4f776e61626c653a2063616c6c6572206973206e6f7420746865206f776e6572604482015290519081900360640190fd5b6001600160a01b0382166109c35760405162461bcd60e51b815260040180806020018281038252602a815260200180611288602a913960400191505060405180910390fd5b600092830b830b8352600660205260409092206001810180547fffffffffffffffffffffffff0000000000000000000000000000000000000000166001600160a01b03939093169290921790915555565b610a1c610d39565b6001600160a01b0316610a2d61060f565b6001600160a01b031614610a88576040805162461bcd60e51b815260206004820181905260248201527f4f776e61626c653a2063616c6c6572206973206e6f7420746865206f776e6572604482015290519081900360640190fd5b6001600160a01b038116610acd5760405162461bcd60e51b815260040180806020018281038252602a815260200180611288602a913960400191505060405180910390fd5b600380547fffffffffffffffffffffffff0000000000000000000000000000000000000000166001600160a01b0392909216919091179055565b610b0f610d39565b6001600160a01b0316610b2061060f565b6001600160a01b031614610b7b576040805162461bcd60e51b815260206004820181905260248201527f4f776e61626c653a2063616c6c6572206973206e6f7420746865206f776e6572604482015290519081900360640190fd5b6001600160a01b038216610bc05760405162461bcd60e51b815260040180806020018281038252602f815260200180611259602f913960400191505060405180910390fd5b6001600160a01b0391909116600090815260076020526040812080547fffffffffffffffffffffffffffffffffffffffffffffffffffffffffffffff001660ff9390920b92909216179055565b610c15610d39565b6001600160a01b0316610c2661060f565b6001600160a01b031614610c81576040805162461bcd60e51b815260206004820181905260248201527f4f776e61626c653a2063616c6c6572206973206e6f7420746865206f776e6572604482015290519081900360640190fd5b6001600160a01b038116610cc65760405162461bcd60e51b81526004018080602001828103825260268152602001806111df6026913960400191505060405180910390fd5b600080546040516001600160a01b03808516939216917f8be0079c531659141344cd1fd0a4f28419497f9722a3daafe3b4186f6b6457e091a3600080547fffffffffffffffffffffffff0000000000000000000000000000000000000000166001600160a01b0392909216919091179055565b3390565b604080516001600160a01b0380861660248301528416604482015260648082018490528251808303909101815260849091019091526020810180517bffffffffffffffffffffffffffffffffffffffffffffffffffffffff167f23b872dd00000000000000000000000000000000000000000000000000000000179052610dc5908590610eb1565b50505050565b604080516001600160a01b038416602482015260448082018490528251808303909101815260649091019091526020810180517bffffffffffffffffffffffffffffffffffffffffffffffffffffffff167fa9059cbb00000000000000000000000000000000000000000000000000000000179052610e4b908490610eb1565b505050565b600082820183811015610eaa576040805162461bcd60e51b815260206004820152601b60248201527f536166654d6174683a206164646974696f6e206f766572666c6f770000000000604482015290519081900360640190fd5b9392505050565b6060610f06826040518060400160405280602081526020017f5361666542455032303a206c6f772d6c6576656c2063616c6c206661696c6564815250856001600160a01b0316610f629092919063ffffffff16565b805190915015610e4b57808060200190516020811015610f2557600080fd5b5051610e4b5760405162461bcd60e51b815260040180806020018281038252602a8152602001806111b5602a913960400191505060405180910390fd5b6060610f718484600085610f79565b949350505050565b606082471015610fba5760405162461bcd60e51b81526004018080602001828103825260268152602001806112336026913960400191505060405180910390fd5b610fc3856110f3565b611014576040805162461bcd60e51b815260206004820152601d60248201527f416464726573733a2063616c6c20746f206e6f6e2d636f6e7472616374000000604482015290519081900360640190fd5b60006060866001600160a01b031685876040518082805190602001908083835b6020831061107157805182527fffffffffffffffffffffffffffffffffffffffffffffffffffffffffffffffe09092019160209182019101611034565b6001836020036101000a03801982511681845116808217855250505050505090500191505060006040518083038185875af1925050503d80600081146110d3576040519150601f19603f3d011682016040523d82523d6000602084013e6110d8565b606091505b50915091506110e88282866110f9565b979650505050505050565b3b151590565b60608315611108575081610eaa565b8251156111185782518084602001fd5b8160405162461bcd60e51b81526004018080602001828103825283818151815260200191508051906020019080838360005b8381101561116257818101518382015260200161114a565b50505050905090810190601f16801561118f5780820380516001836020036101000a031916815260200191505b509250505060405180910390fd5b60408051808201909152600080825260208201529056fe5361666542455032303a204245503230206f7065726174696f6e20646964206e6f7420737563636565644f776e61626c653a206e6577206f776e657220697320746865207a65726f2061646472657373526566657272616c5265776172643a207472616e736665722066726f6d20746865207a65726f2061646472657373416464726573733a20696e73756666696369656e742062616c616e636520666f722063616c6c526566657272616c5265776172643a20757365724164647265737320697320746865207a65726f2061646472657373526566657272616c5265776172643a2077616c6c657420697320746865207a65726f2061646472657373526566657272616c5265776172643a207472616e7366657220746f20746865207a65726f2061646472657373a264697066735822122019afbcb8b74b28525f7217ba34d1fb4644cac5312d652e0c9fd3d55c99ddba7764736f6c634300060c0033526566657272616c5265776172643a2064656661756c74416d6f756e74206973207a65726f526566657272616c5265776172643a20746f6b656e20697320746865207a65726f2061646472657373526566657272616c5265776172643a2064656661756c7457616c6c657420697320746865207a65726f2061646472657373",
  "immutableReferences": {},
  "source": "pragma solidity >=0.6.0;\nimport \"@openzeppelin/contracts/access/Ownable.sol\";\nimport \"@openzeppelin/contracts/math/SafeMath.sol\";\n\n\nimport \"./libraries/SafeBEP20.sol\";\nimport \"./interfaces/IReferralReward.sol\";\n\ncontract ReferralReward is IReferralReward, Ownable {\n    using SafeMath for uint256;\n    using SafeBEP20 for IBEP20;\n\n    IBEP20 private _token;\n    bool private _paused;\n\n    uint256 private _amount;\n    address private _wallet;\n\n    \n    mapping(address => address) _rewards;\n    mapping(address => uint256) _balances;\n    mapping(int8 => UserType) private _userTypes;\n    mapping(address => int8) private _users;\n    struct UserType {\n        uint256 amount;\n        address wallet;\n    }\n\n    function balanceOf(address account) public override view returns (uint256) {\n        return _balances[account];\n    }\n\n    constructor(IBEP20 token, uint256 defaultAmount, address defaultWallet) public {\n        require(address(token) != address(0), \"ReferralReward: token is the zero address\");\n        require(defaultWallet != address(0), \"ReferralReward: defaultWallet is the zero address\");\n        require(defaultAmount != 0, \"ReferralReward: defaultAmount is zero\");\n\n        _token = token;\n        _amount = defaultAmount;\n        _wallet = defaultWallet;\n        _paused = false;\n    }\n\n    function setUserType(int8 typeId, address wallet, uint256 amount) public  onlyOwner\n    {\n        require(wallet != address(0), \"ReferralReward: wallet is the zero address\");\n        \n        _userTypes[typeId].wallet = wallet;\n        _userTypes[typeId].amount = amount;\n    }\n\n    function setUser(address userAddress, int8 typeId) public  onlyOwner\n    {\n        require(userAddress != address(0), \"ReferralReward: userAddress is the zero address\");\n        _users[userAddress] = typeId;\n    }\n    \n    function getUser(address userAddress) public view virtual returns (int8 userType, uint256 amount, address wallet) {\n        int8 _userType = _users[userAddress];\n        if (_userType==0)\n            return (0, _amount, _wallet);\n\n        UserType memory t = _userTypes[_users[userAddress]];\n        return (_userType, t.amount, t.wallet);\n    }\n\n    function wallet() public view virtual returns (address) {\n        return _wallet;\n    }\n    function amount() public view virtual returns (uint256) {\n        return _amount;\n    }\n\n\n    function setWallet(address wallet) public onlyOwner\n    {\n        require(wallet != address(0), \"ReferralReward: wallet is the zero address\");\n        _wallet = wallet;\n    }\n    function setAmount(address wallet, uint256 amount) public  onlyOwner\n    {\n        _amount = amount;\n    }\n\n    function paused() public view virtual returns (bool) {\n        return _paused;\n    }\n\n    function pause() onlyOwner public {\n        _paused = true;\n    }\n    function unpause() onlyOwner public {\n        _paused = false;\n    }\n\n    function transfer(address sender, address recipient) external override onlyOwner {\n        require(sender != address(0), 'ReferralReward: transfer from the zero address');\n        if (_paused || _rewards[sender] != address(0))\n            return;\n        \n        require(recipient != address(0), 'ReferralReward: transfer to the zero address');\n        \n\n        uint256 amount = _amount;\n        address wallet = _wallet;\n\n        UserType memory userType = _userTypes[_users[recipient]];\n        if (userType.amount != 0)\n        {\n            amount = userType.amount;\n            wallet = userType.wallet;\n        }\n\n        //_token.safeApprove(recipient, amount);\n        _token.safeTransferFrom(wallet, address(this), amount);\n        _token.safeTransfer(recipient, amount);\n\n        _balances[recipient] = _balances[recipient].add(amount);\n        _rewards[sender] = recipient;\n    }\n\n}",
  "sourcePath": "/Users/canaydin/Development/GitHub/fanz-contracts/contracts/ReferralReward.sol",
  "compiler": {
    "name": "solc",
    "version": "0.6.12+commit.27d51765.Emscripten.clang"
  },
  "schemaVersion": "3.4.0",
  "updatedAt": "2021-05-20T10:12:18.909Z",
  "networkType": "ethereum",
  "devdoc": {
    "kind": "dev",
    "methods": {
      "owner()": {
        "details": "Returns the address of the current owner."
      },
      "renounceOwnership()": {
        "details": "Leaves the contract without owner. It will not be possible to call `onlyOwner` functions anymore. Can only be called by the current owner. NOTE: Renouncing ownership will leave the contract without an owner, thereby removing any functionality that is only available to the owner."
      },
      "transferOwnership(address)": {
        "details": "Transfers ownership of the contract to a new account (`newOwner`). Can only be called by the current owner."
      }
    },
    "version": 1
  },
  "userdoc": {
    "kind": "user",
    "methods": {},
    "version": 1
  }
}