{
  "contractName": "TokenSale",
  "abi": [
    {
      "inputs": [
        {
          "internalType": "contract IStdReference",
          "name": "ref",
          "type": "address"
        },
        {
          "internalType": "address payable",
          "name": "wallet",
          "type": "address"
        },
        {
          "internalType": "address",
          "name": "fromAddress",
          "type": "address"
        },
        {
          "internalType": "contract IBEP20",
          "name": "token",
          "type": "address"
        },
        {
          "internalType": "uint256",
          "name": "tokenUSDPrice",
          "type": "uint256"
        },
        {
          "internalType": "contract IReferralReward",
          "name": "referralRewardContract",
          "type": "address"
        }
      ],
      "stateMutability": "nonpayable",
      "type": "constructor"
    },
    {
      "anonymous": false,
      "inputs": [
        {
          "indexed": false,
          "internalType": "string",
          "name": "symbol",
          "type": "string"
        },
        {
          "indexed": true,
          "internalType": "address",
          "name": "currencyAddress",
          "type": "address"
        }
      ],
      "name": "CurrencyAdded",
      "type": "event"
    },
    {
      "anonymous": false,
      "inputs": [
        {
          "indexed": false,
          "internalType": "string",
          "name": "symbol",
          "type": "string"
        }
      ],
      "name": "CurrencyRemoved",
      "type": "event"
    },
    {
      "anonymous": false,
      "inputs": [
        {
          "indexed": true,
          "internalType": "address",
          "name": "previousOwner",
          "type": "address"
        },
        {
          "indexed": true,
          "internalType": "address",
          "name": "newOwner",
          "type": "address"
        }
      ],
      "name": "OwnershipTransferred",
      "type": "event"
    },
    {
      "anonymous": false,
      "inputs": [
        {
          "indexed": false,
          "internalType": "address",
          "name": "account",
          "type": "address"
        }
      ],
      "name": "Paused",
      "type": "event"
    },
    {
      "anonymous": false,
      "inputs": [
        {
          "indexed": true,
          "internalType": "address",
          "name": "purchaser",
          "type": "address"
        },
        {
          "indexed": true,
          "internalType": "address",
          "name": "beneficiary",
          "type": "address"
        },
        {
          "indexed": false,
          "internalType": "string",
          "name": "symbol",
          "type": "string"
        },
        {
          "indexed": false,
          "internalType": "uint256",
          "name": "value",
          "type": "uint256"
        },
        {
          "indexed": false,
          "internalType": "uint256",
          "name": "amount",
          "type": "uint256"
        }
      ],
      "name": "TokensPurchased",
      "type": "event"
    },
    {
      "anonymous": false,
      "inputs": [
        {
          "indexed": false,
          "internalType": "uint256",
          "name": "value",
          "type": "uint256"
        }
      ],
      "name": "TokensUSDPriceChanged",
      "type": "event"
    },
    {
      "anonymous": false,
      "inputs": [
        {
          "indexed": false,
          "internalType": "address",
          "name": "account",
          "type": "address"
        }
      ],
      "name": "Unpaused",
      "type": "event"
    },
    {
      "inputs": [],
      "name": "_tokenUSDPrice",
      "outputs": [
        {
          "internalType": "uint256",
          "name": "",
          "type": "uint256"
        }
      ],
      "stateMutability": "view",
      "type": "function",
      "constant": true
    },
    {
      "inputs": [
        {
          "internalType": "uint256",
          "name": "",
          "type": "uint256"
        }
      ],
      "name": "currencyList",
      "outputs": [
        {
          "internalType": "string",
          "name": "symbol",
          "type": "string"
        },
        {
          "internalType": "address",
          "name": "currencyAddress",
          "type": "address"
        }
      ],
      "stateMutability": "view",
      "type": "function",
      "constant": true
    },
    {
      "inputs": [],
      "name": "owner",
      "outputs": [
        {
          "internalType": "address",
          "name": "",
          "type": "address"
        }
      ],
      "stateMutability": "view",
      "type": "function",
      "constant": true
    },
    {
      "inputs": [],
      "name": "paused",
      "outputs": [
        {
          "internalType": "bool",
          "name": "",
          "type": "bool"
        }
      ],
      "stateMutability": "view",
      "type": "function",
      "constant": true
    },
    {
      "inputs": [],
      "name": "renounceOwnership",
      "outputs": [],
      "stateMutability": "nonpayable",
      "type": "function"
    },
    {
      "inputs": [
        {
          "internalType": "address",
          "name": "newOwner",
          "type": "address"
        }
      ],
      "name": "transferOwnership",
      "outputs": [],
      "stateMutability": "nonpayable",
      "type": "function"
    },
    {
      "stateMutability": "payable",
      "type": "receive",
      "payable": true
    },
    {
      "inputs": [],
      "name": "getCurrencies",
      "outputs": [
        {
          "components": [
            {
              "internalType": "string",
              "name": "symbol",
              "type": "string"
            },
            {
              "internalType": "address",
              "name": "currencyAddress",
              "type": "address"
            }
          ],
          "internalType": "struct TokenSale.Currency[]",
          "name": "",
          "type": "tuple[]"
        }
      ],
      "stateMutability": "view",
      "type": "function",
      "constant": true
    },
    {
      "inputs": [
        {
          "internalType": "uint256",
          "name": "price",
          "type": "uint256"
        }
      ],
      "name": "setTokenUSDPrice",
      "outputs": [],
      "stateMutability": "nonpayable",
      "type": "function"
    },
    {
      "inputs": [
        {
          "internalType": "address",
          "name": "saleWalletAddress",
          "type": "address"
        }
      ],
      "name": "setSaleWallet",
      "outputs": [],
      "stateMutability": "nonpayable",
      "type": "function"
    },
    {
      "inputs": [
        {
          "internalType": "address payable",
          "name": "wallet",
          "type": "address"
        }
      ],
      "name": "setWallet",
      "outputs": [],
      "stateMutability": "nonpayable",
      "type": "function"
    },
    {
      "inputs": [
        {
          "internalType": "contract IStdReference",
          "name": "ref",
          "type": "address"
        }
      ],
      "name": "setRef",
      "outputs": [],
      "stateMutability": "nonpayable",
      "type": "function"
    },
    {
      "inputs": [
        {
          "internalType": "contract IReferralReward",
          "name": "referralRewardContract",
          "type": "address"
        }
      ],
      "name": "setReferralRewardContract",
      "outputs": [],
      "stateMutability": "nonpayable",
      "type": "function"
    },
    {
      "inputs": [],
      "name": "saleWallet",
      "outputs": [
        {
          "internalType": "address",
          "name": "",
          "type": "address"
        }
      ],
      "stateMutability": "view",
      "type": "function",
      "constant": true
    },
    {
      "inputs": [],
      "name": "getTokenUSDPrice",
      "outputs": [
        {
          "internalType": "uint256",
          "name": "",
          "type": "uint256"
        }
      ],
      "stateMutability": "view",
      "type": "function",
      "constant": true
    },
    {
      "inputs": [],
      "name": "token",
      "outputs": [
        {
          "internalType": "contract IBEP20",
          "name": "",
          "type": "address"
        }
      ],
      "stateMutability": "view",
      "type": "function",
      "constant": true
    },
    {
      "inputs": [],
      "name": "wallet",
      "outputs": [
        {
          "internalType": "address payable",
          "name": "",
          "type": "address"
        }
      ],
      "stateMutability": "view",
      "type": "function",
      "constant": true
    },
    {
      "inputs": [
        {
          "internalType": "string",
          "name": "symbol",
          "type": "string"
        }
      ],
      "name": "rate",
      "outputs": [
        {
          "components": [
            {
              "internalType": "uint256",
              "name": "rate",
              "type": "uint256"
            },
            {
              "internalType": "uint256",
              "name": "lastUpdatedBase",
              "type": "uint256"
            },
            {
              "internalType": "uint256",
              "name": "lastUpdatedQuote",
              "type": "uint256"
            }
          ],
          "internalType": "struct IStdReference.ReferenceData",
          "name": "",
          "type": "tuple"
        }
      ],
      "stateMutability": "view",
      "type": "function",
      "constant": true
    },
    {
      "inputs": [],
      "name": "weiRaised",
      "outputs": [
        {
          "internalType": "uint256",
          "name": "",
          "type": "uint256"
        }
      ],
      "stateMutability": "view",
      "type": "function",
      "constant": true
    },
    {
      "inputs": [
        {
          "internalType": "string",
          "name": "symbol",
          "type": "string"
        },
        {
          "internalType": "uint256",
          "name": "weiAmount",
          "type": "uint256"
        }
      ],
      "name": "getTokenAmount",
      "outputs": [
        {
          "internalType": "uint256",
          "name": "",
          "type": "uint256"
        }
      ],
      "stateMutability": "view",
      "type": "function",
      "constant": true
    },
    {
      "inputs": [
        {
          "internalType": "string",
          "name": "symbol",
          "type": "string"
        },
        {
          "internalType": "address",
          "name": "currencyAddress",
          "type": "address"
        }
      ],
      "name": "addCurrency",
      "outputs": [],
      "stateMutability": "nonpayable",
      "type": "function"
    },
    {
      "inputs": [
        {
          "internalType": "string",
          "name": "symbol",
          "type": "string"
        }
      ],
      "name": "removeCurrency",
      "outputs": [],
      "stateMutability": "nonpayable",
      "type": "function"
    },
    {
      "inputs": [
        {
          "internalType": "string",
          "name": "symbol",
          "type": "string"
        },
        {
          "internalType": "uint256",
          "name": "weiAmount",
          "type": "uint256"
        },
        {
          "internalType": "address",
          "name": "referralAddress",
          "type": "address"
        }
      ],
      "name": "buyWithCurrency",
      "outputs": [],
      "stateMutability": "nonpayable",
      "type": "function"
    },
    {
      "inputs": [
        {
          "internalType": "address",
          "name": "beneficiary",
          "type": "address"
        },
        {
          "internalType": "address",
          "name": "referralAddress",
          "type": "address"
        }
      ],
      "name": "buyTokens",
      "outputs": [],
      "stateMutability": "payable",
      "type": "function",
      "payable": true
    }
  ],
  "bytecode": "0x60806040523480156200001157600080fd5b5060405162002763380380620027638339810160408190526200003491620001bd565b600062000040620001b9565b600080546001600160a01b0319166001600160a01b0383169081178255604051929350917f8be0079c531659141344cd1fd0a4f28419497f9722a3daafe3b4186f6b6457e0908290a350600180556002805460ff191690556001600160a01b038416620000ca5760405162461bcd60e51b8152600401620000c1906200030f565b60405180910390fd5b6001600160a01b038616620000f35760405162461bcd60e51b8152600401620000c190620002cd565b6001600160a01b0385166200011c5760405162461bcd60e51b8152600401620000c19062000244565b6001600160a01b038316620001455760405162461bcd60e51b8152600401620000c19062000289565b600280546001600160a01b0397881661010002610100600160a81b0319909116179055600391909155600480549286166001600160a01b0319938416179055600780549486169483169490941790935560058054938516938216939093179092556006805491909316911617905562000372565b3390565b60008060008060008060c08789031215620001d6578182fd5b8651620001e38162000359565b6020880151909650620001f68162000359565b6040880151909550620002098162000359565b60608801519094506200021c8162000359565b608088015160a08901519194509250620002368162000359565b809150509295509295509295565b60208082526025908201527f546f6b656e53616c653a2077616c6c657420697320746865207a65726f206164604082015264647265737360d81b606082015260800190565b60208082526024908201527f546f6b656e53616c653a20746f6b656e20697320746865207a65726f206164646040820152637265737360e01b606082015260800190565b60208082526022908201527f546f6b656e53616c653a2072656620697320746865207a65726f206164647265604082015261737360f01b606082015260800190565b6020808252602a908201527f546f6b656e53616c653a2066726f6d4164647265737320697320746865207a65604082015269726f206164647265737360b01b606082015260800190565b6001600160a01b03811681146200036f57600080fd5b50565b6123e180620003826000396000f3fe6080604052600436106101845760003560e01c8063715018a6116100d6578063ba095a251161007f578063f0d053dc11610059578063f0d053dc146103fc578063f2fde38b1461042a578063fc0c546a1461044a5761019d565b8063ba095a25146103a7578063c9307849146103c7578063deaa59df146103dc5761019d565b80638da5cb5b116100b05780638da5cb5b146103525780639096c29a1461036757806399dcc518146103875761019d565b8063715018a61461030857806372063eff1461031d5780637c4db77d1461033d5761019d565b8063521eb273116101385780635c975abb116101125780635c975abb146102a457806361c661de146102c65780636bc855cc146102e85761019d565b8063521eb27314610235578063547d0d70146102575780635763b8c6146102845761019d565b806331e24cc51161016957806331e24cc5146101e05780634042b66f146102005780634ef9f222146102155761019d565b806308bfbe8b146101a257806321bc9a55146101cd5761019d565b3661019d5761019b61019461045f565b6000610463565b005b600080fd5b3480156101ae57600080fd5b506101b761059c565b6040516101c4919061233a565b60405180910390f35b61019b6101db3660046119d5565b610463565b3480156101ec57600080fd5b5061019b6101fb366004611a60565b6105a2565b34801561020c57600080fd5b506101b7610768565b34801561022157600080fd5b5061019b610230366004611b7e565b61076e565b34801561024157600080fd5b5061024a61080a565b6040516101c49190611bde565b34801561026357600080fd5b50610277610272366004611a2d565b610819565b6040516101c49190612319565b34801561029057600080fd5b5061019b61029f366004611ae8565b6108cd565b3480156102b057600080fd5b506102b9610b12565b6040516101c49190611ce3565b3480156102d257600080fd5b506102db610b1b565b6040516101c49190611c49565b3480156102f457600080fd5b5061019b6103033660046119b9565b610c17565b34801561031457600080fd5b5061019b610cbb565b34801561032957600080fd5b506101b7610338366004611aa5565b610d51565b34801561034957600080fd5b5061024a610d66565b34801561035e57600080fd5b5061024a610d75565b34801561037357600080fd5b5061019b610382366004611a2d565b610d84565b34801561039357600080fd5b5061019b6103a23660046119b9565b611036565b3480156103b357600080fd5b5061019b6103c23660046119b9565b6110ca565b3480156103d357600080fd5b506101b7611138565b3480156103e857600080fd5b5061019b6103f73660046119b9565b61113e565b34801561040857600080fd5b5061041c610417366004611b7e565b6111d2565b6040516101c4929190611d01565b34801561043657600080fd5b5061019b6104453660046119b9565b61128e565b34801561045657600080fd5b5061024a61135b565b3390565b6002600154141561048f5760405162461bcd60e51b8152600401610486906122e2565b60405180910390fd5b600260015561049c610b12565b156104b95760405162461bcd60e51b8152600401610486906120f1565b346104c4838261136a565b60006105056040518060400160405280600381526020017f424e420000000000000000000000000000000000000000000000000000000000815250836113b1565b6008549091506105159083611453565b6008556105228482611478565b61052c8484611482565b836001600160a01b031661053e61045f565b6001600160a01b03167f9544b0f83cdd948345ed5953a2d5e5f29062a4075426fe09fb4508b63432d7118484604051610578929190611fbc565b60405180910390a3610588611512565b61059284836113ad565b5050600180555050565b60035481565b6105aa61045f565b6001600160a01b03166105bb610d75565b6001600160a01b0316146105e15760405162461bcd60e51b815260040161048690612276565b6001600160a01b0381166106075760405162461bcd60e51b81526004016104869061215f565b806009836040516106189190611bc2565b90815260405190819003602001902080546001600160a01b039290921673ffffffffffffffffffffffffffffffffffffffff1990921691909117905561065c611844565b8281526001600160a01b038216602080830191909152600b805460018101825560009190915282518051849360029093027f0175b7a638427703f0dbe7bb9bbf987a2551717b34e79f33b5b1008d1fa01db901926106be92849291019061185c565b50602091909101516001909101805473ffffffffffffffffffffffffffffffffffffffff19166001600160a01b03909216919091179055600b5460405160001990910190600a90610710908690611bc2565b908152602001604051809103902081905550816001600160a01b03167f78a8fa0fa1724f3583257b016e1adc46e00900ae9717899ef52718cfdc1a16668460405161075b9190611cee565b60405180910390a2505050565b60085490565b61077661045f565b6001600160a01b0316610787610d75565b6001600160a01b0316146107ad5760405162461bcd60e51b815260040161048690612276565b806107ca5760405162461bcd60e51b815260040161048690612128565b60038190556040517fca4131ddfd8ebff137db06d5a3affd0ad277c6bdf8bdc5be0235607e3466e19c906107ff90839061233a565b60405180910390a150565b6007546001600160a01b031690565b6108216118da565b6108296118da565b6002546040517f65555bcc0000000000000000000000000000000000000000000000000000000081526101009091046001600160a01b0316906365555bcc90610876908690600401611d2c565b60606040518083038186803b15801561088e57600080fd5b505afa1580156108a2573d6000803e3d6000fd5b505050506040513d601f19601f820116820180604052508101906108c69190611b41565b9392505050565b600260015414156108f05760405162461bcd60e51b8152600401610486906122e2565b60026001556108fd610b12565b1561091a5760405162461bcd60e51b8152600401610486906120f1565b60006001600160a01b03166009846040516109359190611bc2565b908152604051908190036020019020546001600160a01b0316141561096c5760405162461bcd60e51b815260040161048690611e00565b600061097661045f565b9050610982818461136a565b61098a6118da565b6002546040517f65555bcc0000000000000000000000000000000000000000000000000000000081526101009091046001600160a01b0316906365555bcc906109d7908890600401611d2c565b60606040518083038186803b1580156109ef57600080fd5b505afa158015610a03573d6000803e3d6000fd5b505050506040513d601f19601f82011682018060405250810190610a279190611b41565b90506000610a4e600354610a4884600001518861154e90919063ffffffff16565b90611588565b9050610a5a83826115ba565b610a648385611482565b610ab083600760009054906101000a90046001600160a01b03168760098a604051610a8f9190611bc2565b908152604051908190036020019020546001600160a01b03169291906115ef565b826001600160a01b0316610ac261045f565b6001600160a01b03167f9544b0f83cdd948345ed5953a2d5e5f29062a4075426fe09fb4508b63432d711888885604051610afe93929190611d7e565b60405180910390a350506001805550505050565b60025460ff1690565b6060600b805480602002602001604051908101604052809291908181526020016000905b82821015610c0e5760008481526020908190206040805160028681029093018054600181161561010002600019011693909304601f810185900490940281016060908101835291810184815290938492849190840182828015610be35780601f10610bb857610100808354040283529160200191610be3565b820191906000526020600020905b815481529060010190602001808311610bc657829003601f168201915b50505091835250506001918201546001600160a01b0316602091820152918352929092019101610b3f565b50505050905090565b610c1f61045f565b6001600160a01b0316610c30610d75565b6001600160a01b031614610c565760405162461bcd60e51b815260040161048690612276565b6001600160a01b038116610c7c5760405162461bcd60e51b8152600401610486906121bc565b600280546001600160a01b03909216610100027fffffffffffffffffffffff0000000000000000000000000000000000000000ff909216919091179055565b610cc361045f565b6001600160a01b0316610cd4610d75565b6001600160a01b031614610cfa5760405162461bcd60e51b815260040161048690612276565b600080546040516001600160a01b03909116907f8be0079c531659141344cd1fd0a4f28419497f9722a3daafe3b4186f6b6457e0908390a36000805473ffffffffffffffffffffffffffffffffffffffff19169055565b6000610d5d83836113b1565b90505b92915050565b6006546001600160a01b031690565b6000546001600160a01b031690565b610d8c61045f565b6001600160a01b0316610d9d610d75565b6001600160a01b031614610dc35760405162461bcd60e51b815260040161048690612276565b600981604051610dd39190611bc2565b908152604051908190036020018120805473ffffffffffffffffffffffffffffffffffffffff19169055600090600a90610e0e908490611bc2565b9081526020016040518091039020549050610e27611844565b600b80546000198101908110610e3957fe5b60009182526020918290206040805160029384029092018054600181161561010002600019011693909304601f81018590049094028201606090810182529082018481529193849291849190840182828015610ed65780601f10610eab57610100808354040283529160200191610ed6565b820191906000526020600020905b815481529060010190602001808311610eb957829003601f168201915b5050509183525050600191909101546001600160a01b0316602090910152600b8054919250829184908110610f0757fe5b90600052602060002090600202016000820151816000019080519060200190610f3192919061185c565b50602091909101516001909101805473ffffffffffffffffffffffffffffffffffffffff19166001600160a01b039092169190911790556040518290600a90610f7b908690611bc2565b90815260405190819003602001902055600b805480610f9657fe5b60008281526020812060001990920191600283020190610fb682826118fb565b50600101805473ffffffffffffffffffffffffffffffffffffffff191690559055604051600a90610fe8908590611bc2565b9081526020016040518091039020600090557fc5ed1e922af12e320173a071785b56794ca3b589c011b0d6845397e89a7a99f1836040516110299190611cee565b60405180910390a1505050565b61103e61045f565b6001600160a01b031661104f610d75565b6001600160a01b0316146110755760405162461bcd60e51b815260040161048690612276565b6001600160a01b03811661109b5760405162461bcd60e51b815260040161048690611ef1565b6006805473ffffffffffffffffffffffffffffffffffffffff19166001600160a01b0392909216919091179055565b6110d261045f565b6001600160a01b03166110e3610d75565b6001600160a01b0316146111095760405162461bcd60e51b815260040161048690612276565b6005805473ffffffffffffffffffffffffffffffffffffffff19166001600160a01b0392909216919091179055565b60035490565b61114661045f565b6001600160a01b0316611157610d75565b6001600160a01b03161461117d5760405162461bcd60e51b815260040161048690612276565b6001600160a01b0381166111a35760405162461bcd60e51b815260040161048690611da3565b6007805473ffffffffffffffffffffffffffffffffffffffff19166001600160a01b0392909216919091179055565b600b81815481106111df57fe5b60009182526020918290206002918202018054604080516001831615610100026000190190921693909304601f8101859004850282018501909352828152909350918391908301828280156112755780601f1061124a57610100808354040283529160200191611275565b820191906000526020600020905b81548152906001019060200180831161125857829003601f168201915b505050600190930154919250506001600160a01b031682565b61129661045f565b6001600160a01b03166112a7610d75565b6001600160a01b0316146112cd5760405162461bcd60e51b815260040161048690612276565b6001600160a01b0381166112f35760405162461bcd60e51b815260040161048690611e94565b600080546040516001600160a01b03808516939216917f8be0079c531659141344cd1fd0a4f28419497f9722a3daafe3b4186f6b6457e091a36000805473ffffffffffffffffffffffffffffffffffffffff19166001600160a01b0392909216919091179055565b6004546001600160a01b031690565b6001600160a01b0382166113905760405162461bcd60e51b815260040161048690612000565b806113ad5760405162461bcd60e51b815260040161048690611f85565b5050565b6003546040517f547d0d70000000000000000000000000000000000000000000000000000000008152600091610d5d91610a4890309063547d0d70906113fb908990600401611cee565b60606040518083038186803b15801561141357600080fd5b505afa158015611427573d6000803e3d6000fd5b505050506040513d601f19601f8201168201806040525081019061144b9190611b41565b51859061154e565b600082820183811015610d5d5760405162461bcd60e51b815260040161048690611f4e565b6113ad82826115ba565b6001600160a01b038116156113ad576005546040517fba45b0b80000000000000000000000000000000000000000000000000000000081526001600160a01b039091169063ba45b0b8906114dc9085908590600401611bf2565b600060405180830381600087803b1580156114f657600080fd5b505af115801561150a573d6000803e3d6000fd5b505050505050565b6007546040516001600160a01b03909116903480156108fc02916000818181858888f1935050505015801561154b573d6000803e3d6000fd5b50565b60008261155d57506000610d60565b8282028284828161156a57fe5b0414610d5d5760405162461bcd60e51b815260040161048690612219565b60008082116115a95760405162461bcd60e51b8152600401610486906120ba565b8183816115b257fe5b049392505050565b6006546004546115d8916001600160a01b03918216911630846115ef565b6004546113ad906001600160a01b0316838361167a565b611674846323b872dd60e01b85858560405160240161161093929190611c0c565b60408051601f198184030181529190526020810180517bffffffffffffffffffffffffffffffffffffffffffffffffffffffff167fffffffff000000000000000000000000000000000000000000000000000000009093169290921790915261169e565b50505050565b6116998363a9059cbb60e01b8484604051602401611610929190611c30565b505050565b60606116f3826040518060400160405280602081526020017f5361666542455032303a206c6f772d6c6576656c2063616c6c206661696c6564815250856001600160a01b031661172d9092919063ffffffff16565b80519091501561169957808060200190518101906117119190611a0d565b6116995760405162461bcd60e51b815260040161048690611e37565b606061173c8484600085611744565b949350505050565b6060824710156117665760405162461bcd60e51b81526004016104869061205d565b61176f85611805565b61178b5760405162461bcd60e51b8152600401610486906122ab565b60006060866001600160a01b031685876040516117a89190611bc2565b60006040518083038185875af1925050503d80600081146117e5576040519150601f19603f3d011682016040523d82523d6000602084013e6117ea565b606091505b50915091506117fa82828661180b565b979650505050505050565b3b151590565b6060831561181a5750816108c6565b82511561182a5782518084602001fd5b8160405162461bcd60e51b81526004016104869190611cee565b60408051808201909152606081526000602082015290565b828054600181600116156101000203166002900490600052602060002090601f016020900481019282601f1061189d57805160ff19168380011785556118ca565b828001600101855582156118ca579182015b828111156118ca5782518255916020019190600101906118af565b506118d692915061193b565b5090565b60405180606001604052806000815260200160008152602001600081525090565b50805460018160011615610100020316600290046000825580601f10611921575061154b565b601f01602090049060005260206000209081019061154b91905b5b808211156118d6576000815560010161193c565b600082601f830112611960578081fd5b813567ffffffffffffffff811115611976578182fd5b6119896020601f19601f84011601612343565b91508082528360208285010111156119a057600080fd5b8060208401602084013760009082016020015292915050565b6000602082840312156119ca578081fd5b8135610d5d81612396565b600080604083850312156119e7578081fd5b82356119f281612396565b91506020830135611a0281612396565b809150509250929050565b600060208284031215611a1e578081fd5b81518015158114610d5d578182fd5b600060208284031215611a3e578081fd5b813567ffffffffffffffff811115611a54578182fd5b61173c84828501611950565b60008060408385031215611a72578182fd5b823567ffffffffffffffff811115611a88578283fd5b611a9485828601611950565b9250506020830135611a0281612396565b60008060408385031215611ab7578182fd5b823567ffffffffffffffff811115611acd578283fd5b611ad985828601611950565b95602094909401359450505050565b600080600060608486031215611afc578081fd5b833567ffffffffffffffff811115611b12578182fd5b611b1e86828701611950565b935050602084013591506040840135611b3681612396565b809150509250925092565b600060608284031215611b52578081fd5b611b5c6060612343565b8251815260208301516020820152604083015160408201528091505092915050565b600060208284031215611b8f578081fd5b5035919050565b60008151808452611bae81602086016020860161236a565b601f01601f19169290920160200192915050565b60008251611bd481846020870161236a565b9190910192915050565b6001600160a01b0391909116815260200190565b6001600160a01b0392831681529116602082015260400190565b6001600160a01b039384168152919092166020820152604081019190915260600190565b6001600160a01b03929092168252602082015260400190565b60208082528251828201819052600091906040908185019080840286018301878501865b83811015611cd5577fffffffffffffffffffffffffffffffffffffffffffffffffffffffffffffffc089840301855281518051878552611caf88860182611b96565b918901516001600160a01b03169489019490945294870194925090860190600101611c6d565b509098975050505050505050565b901515815260200190565b600060208252610d5d6020830184611b96565b600060408252611d146040830185611b96565b90506001600160a01b03831660208301529392505050565b600060408252611d3f6040830184611b96565b8281036020840152600381527f555344000000000000000000000000000000000000000000000000000000000060208201526040810191505092915050565b600060608252611d916060830186611b96565b60208301949094525060400152919050565b60208082526025908201527f546f6b656e53616c653a2077616c6c657420697320746865207a65726f20616460408201527f6472657373000000000000000000000000000000000000000000000000000000606082015260800190565b6020808252601b908201527f546f6b656e53616c653a2073796d626f6c206e6f7420666f756e640000000000604082015260600190565b6020808252602a908201527f5361666542455032303a204245503230206f7065726174696f6e20646964206e60408201527f6f74207375636365656400000000000000000000000000000000000000000000606082015260800190565b60208082526026908201527f4f776e61626c653a206e6577206f776e657220697320746865207a65726f206160408201527f6464726573730000000000000000000000000000000000000000000000000000606082015260800190565b60208082526030908201527f546f6b656e53616c653a2073616c6557616c6c6574416464726573732069732060408201527f746865207a65726f206164647265737300000000000000000000000000000000606082015260800190565b6020808252601b908201527f536166654d6174683a206164646974696f6e206f766572666c6f770000000000604082015260600190565b60208082526019908201527f546f6b656e53616c653a20776569416d6f756e74206973203000000000000000604082015260600190565b60608082526003908201527f424e42000000000000000000000000000000000000000000000000000000000060808201526020810192909252604082015260a00190565b6020808252602a908201527f546f6b656e53616c653a2062656e656669636961727920697320746865207a6560408201527f726f206164647265737300000000000000000000000000000000000000000000606082015260800190565b60208082526026908201527f416464726573733a20696e73756666696369656e742062616c616e636520666f60408201527f722063616c6c0000000000000000000000000000000000000000000000000000606082015260800190565b6020808252601a908201527f536166654d6174683a206469766973696f6e206279207a65726f000000000000604082015260600190565b60208082526010908201527f5061757361626c653a2070617573656400000000000000000000000000000000604082015260600190565b60208082526015908201527f546f6b656e53616c653a20707269636520697320300000000000000000000000604082015260600190565b6020808252602e908201527f546f6b656e53616c653a2063757272656e63794164647265737320697320746860408201527f65207a65726f2061646472657373000000000000000000000000000000000000606082015260800190565b60208082526022908201527f546f6b656e53616c653a2072656620697320746865207a65726f20616464726560408201527f7373000000000000000000000000000000000000000000000000000000000000606082015260800190565b60208082526021908201527f536166654d6174683a206d756c7469706c69636174696f6e206f766572666c6f60408201527f7700000000000000000000000000000000000000000000000000000000000000606082015260800190565b6020808252818101527f4f776e61626c653a2063616c6c6572206973206e6f7420746865206f776e6572604082015260600190565b6020808252601d908201527f416464726573733a2063616c6c20746f206e6f6e2d636f6e7472616374000000604082015260600190565b6020808252601f908201527f5265656e7472616e637947756172643a207265656e7472616e742063616c6c00604082015260600190565b81518152602080830151908201526040918201519181019190915260600190565b90815260200190565b60405181810167ffffffffffffffff8111828210171561236257600080fd5b604052919050565b60005b8381101561238557818101518382015260200161236d565b838111156116745750506000910152565b6001600160a01b038116811461154b57600080fdfea26469706673582212207284578a97d295cfca6ea7a586daa288094fcce17dd2527a1ca34df7d939e8cf64736f6c634300060c0033",
  "immutableReferences": {},
  "source": "// SPDX-License-Identifier: MIT\n\npragma solidity >=0.6.0;\npragma experimental ABIEncoderV2;\n\nimport \"./interfaces/IStdReference.sol\";\nimport \"./libraries/SafeBEP20.sol\";\n\nimport \"@openzeppelin/contracts/GSN/Context.sol\";\nimport \"@openzeppelin/contracts/access/Ownable.sol\";\nimport \"@openzeppelin/contracts/utils/ReentrancyGuard.sol\";\nimport \"@openzeppelin/contracts/utils/Pausable.sol\";\nimport \"./interfaces/IReferralReward.sol\";\n\n\ncontract TokenSale is Context, Ownable, ReentrancyGuard, Pausable {\n    using SafeMath for uint256;\n    using SafeBEP20 for IBEP20;\n    \n\n    IStdReference _ref;\n    uint256 public _tokenUSDPrice;\n    IBEP20 private _token;\n\n    IReferralReward private _referralRewardContract;\n    \n    address private _saleWallet;\n\n    address payable private _wallet;\n    uint256 private _weiRaised;\n    \n\n    struct Currency {\n        string symbol;\n        address currencyAddress;\n    }\n\n    mapping(string => IBEP20) private _currencies;\n    mapping(string => uint) private _currencyListIndex;\n    Currency[] public currencyList;\n\n    function getCurrencies() external view returns (Currency[] memory) {\n        return  currencyList;\n    }\n\n    event TokensPurchased(address indexed purchaser, address indexed beneficiary, string symbol, uint256 value, uint256 amount);\n    event TokensUSDPriceChanged(uint256 value);\n    event CurrencyAdded(string symbol, address indexed currencyAddress);\n    event CurrencyRemoved(string symbol);\n\n\n    constructor(IStdReference ref, \n                address payable wallet, \n                address fromAddress, \n                IBEP20 token, \n                uint256 tokenUSDPrice,\n                IReferralReward referralRewardContract\n                ) public {\n        require(address(fromAddress) != address(0), \"TokenSale: fromAddress is the zero address\");\n        require(address(ref) != address(0), \"TokenSale: ref is the zero address\");\n        require(wallet != address(0), \"TokenSale: wallet is the zero address\");\n        require(address(token) != address(0), \"TokenSale: token is the zero address\");\n        \n\n        _ref = ref;\n        _tokenUSDPrice = tokenUSDPrice;\n        _token = token;\n        _wallet = wallet;\n        _referralRewardContract = referralRewardContract;\n        _saleWallet = fromAddress;\n    }\n\n    receive () external payable {\n        buyTokens(_msgSender(), address(0));\n    }\n\n    \n\n    function setTokenUSDPrice(uint256 price) external onlyOwner {\n        require(price != 0, \"TokenSale: price is 0\");\n        _tokenUSDPrice = price;\n        emit TokensUSDPriceChanged(price);\n    }\n    function setSaleWallet(address saleWalletAddress) external onlyOwner {\n        require(address(saleWalletAddress) != address(0), \"TokenSale: saleWalletAddress is the zero address\");\n        _saleWallet = saleWalletAddress;\n    }\n    function setWallet(address payable wallet) external onlyOwner {\n        require(wallet != address(0), \"TokenSale: wallet is the zero address\");\n        _wallet = wallet;\n    }\n    function setRef(IStdReference ref) external onlyOwner {\n        require(address(ref) != address(0), \"TokenSale: ref is the zero address\");\n        _ref = ref;\n    }\n    function setReferralRewardContract(IReferralReward referralRewardContract) external onlyOwner {\n        _referralRewardContract = referralRewardContract;\n    }\n\n    function saleWallet() public view virtual returns (address) {\n        return _saleWallet;\n    }\n\n    function getTokenUSDPrice() external view returns(uint256) {\n        return _tokenUSDPrice;\n    }\n\n    \n\n\n    function token() public view returns (IBEP20) {\n        return _token;\n    }\n    function wallet() public view returns (address payable) {\n        return _wallet;\n    }\n\n    function rate(string memory symbol) public view returns (IStdReference.ReferenceData memory){\n        IStdReference.ReferenceData memory data = _ref.getReferenceData(symbol, \"USD\");\n        return data;\n    }\n    function weiRaised() public view returns (uint256) {\n        return _weiRaised;\n    }\n\n    function getTokenAmount(string memory symbol, uint256 weiAmount) public view returns (uint256) {\n        return _getTokenAmount(symbol, weiAmount);\n    }\n\n\n    function addCurrency(string memory symbol, address currencyAddress) public  onlyOwner\n    {\n        require(currencyAddress != address(0), \"TokenSale: currencyAddress is the zero address\");\n        _currencies[symbol] = IBEP20(currencyAddress);\n        \n\n        Currency memory currency;\n        currency.symbol = symbol;\n        currency.currencyAddress = currencyAddress;\n        currencyList.push(currency);\n        _currencyListIndex[symbol] = currencyList.length - 1;\n\n        emit CurrencyAdded(symbol, currencyAddress);\n    }\n\n    function removeCurrency(string memory symbol) public  onlyOwner\n    {\n        delete _currencies[symbol];\n\n        uint rowToDelete = _currencyListIndex[symbol];\n        Currency memory keyToMove = currencyList[currencyList.length-1];\n        currencyList[rowToDelete] = keyToMove;\n        _currencyListIndex[symbol] = rowToDelete; \n        currencyList.pop();\n        delete _currencyListIndex[symbol];\n\n\n        \n        emit CurrencyRemoved(symbol);\n    }\n\n\n\n    function buyWithCurrency(string memory symbol, uint256 weiAmount, address referralAddress) external nonReentrant whenNotPaused {\n        require(address(_currencies[symbol]) != address(0), \"TokenSale: symbol not found\");\n\n        address beneficiary = _msgSender();\n        \n        _preValidatePurchase(beneficiary, weiAmount);\n\n        IStdReference.ReferenceData memory currencyData = _ref.getReferenceData(symbol, \"USD\");\n        uint256 tokenAmount = weiAmount.mul(currencyData.rate).div(_tokenUSDPrice);\n\n        //_usdtWeiRaised = _usdtWeiRaised.add(weiAmount);\n\n        _deliverTokens(beneficiary, tokenAmount);\n        _deliverReferralReward(beneficiary, referralAddress);\n        \n        _currencies[symbol].safeTransferFrom(beneficiary, _wallet, weiAmount);\n        emit TokensPurchased(_msgSender(), beneficiary, symbol, weiAmount, tokenAmount);\n    }\n\n\n    function buyTokens(address beneficiary, address referralAddress) public nonReentrant whenNotPaused payable {\n        uint256 weiAmount = msg.value;\n        _preValidatePurchase(beneficiary, weiAmount);\n\n        // calculate token amount to be created\n        uint256 tokens = _getTokenAmount(\"BNB\", weiAmount);\n\n        // update state\n        _weiRaised = _weiRaised.add(weiAmount);\n\n        _processPurchase(beneficiary, tokens);\n        _deliverReferralReward(beneficiary, referralAddress);\n        \n        emit TokensPurchased(_msgSender(), beneficiary, \"BNB\", weiAmount, tokens);\n\n        \n\n        _forwardFunds();\n        _postValidatePurchase(beneficiary, weiAmount);\n    }\n\n\n\n    function _preValidatePurchase(address beneficiary, uint256 weiAmount) internal view virtual {\n        require(beneficiary != address(0), \"TokenSale: beneficiary is the zero address\");\n        require(weiAmount != 0, \"TokenSale: weiAmount is 0\");\n        this; // silence state mutability warning without generating bytecode - see https://github.com/ethereum/solidity/issues/2691\n    }\n\n    function _postValidatePurchase(address beneficiary, uint256 weiAmount) internal view virtual {\n        // solhint-disable-previous-line no-empty-blocks\n    }\n\n    function _deliverTokens(address beneficiary, uint256 tokenAmount) internal virtual {\n        _token.safeTransferFrom(_saleWallet, address(this), tokenAmount);\n        _token.safeTransfer(beneficiary, tokenAmount);\n    }\n\n    function _deliverReferralReward(address beneficiary, address referralAddress) internal virtual {\n        if (referralAddress!= address(0))\n        {\n            _referralRewardContract.transfer(beneficiary, referralAddress);\n        }\n    }\n\n\n    \n\n    function _processPurchase(address beneficiary, uint256 tokenAmount) internal virtual {\n        _deliverTokens(beneficiary, tokenAmount);\n    }\n\n    function _getTokenAmount(string memory symbol, uint256 weiAmount) internal view returns (uint256) {\n        return weiAmount.mul(this.rate(symbol).rate).div(_tokenUSDPrice);\n    }\n\n    function _forwardFunds() internal virtual {\n        _wallet.transfer(msg.value);\n    }\n\n}",
  "sourcePath": "/Users/canaydin/Development/GitHub/fanz-contracts/contracts/TokenSale.sol",
  "compiler": {
    "name": "solc",
    "version": "0.6.12+commit.27d51765.Emscripten.clang"
  },
  "schemaVersion": "3.4.0",
  "updatedAt": "2021-05-20T10:12:18.898Z",
  "networkType": "ethereum",
  "devdoc": {
    "kind": "dev",
    "methods": {
      "owner()": {
        "details": "Returns the address of the current owner."
      },
      "paused()": {
        "details": "Returns true if the contract is paused, and false otherwise."
      },
      "renounceOwnership()": {
        "details": "Leaves the contract without owner. It will not be possible to call `onlyOwner` functions anymore. Can only be called by the current owner. NOTE: Renouncing ownership will leave the contract without an owner, thereby removing any functionality that is only available to the owner."
      },
      "transferOwnership(address)": {
        "details": "Transfers ownership of the contract to a new account (`newOwner`). Can only be called by the current owner."
      }
    },
    "version": 1
  },
  "userdoc": {
    "kind": "user",
    "methods": {},
    "version": 1
  }
}